:100000000C945D000C9485000C9485000C94850084
:100010000C9485000C9485000C9485000C9485004C
:100020000C9485000C9485000C9485000C9485003C
:100030000C9485000C9485000C9485000C9485002C
:100040000C9421020C9485000C9485000C9485007E
:100050000C9485000C9485000C9485000C9485000C
:100060000C946B020C948500000000080002010053
:100070000003040700000000000000000000000072
:10008000250028002B0000000000240027002A0083
:10009000040404040404040402020202020203032E
:1000A0000303030301020408102040800102040836
:1000B0001020010204081020280611241FBECFEFD3
:1000C000D8E0DEBFCDBF11E0A0E0B1E0EAECFEE099
:1000D00002C005900D92A231B107D9F721E0A2E14B
:1000E000B1E001C01D92A93EB207E1F710E0CDE5F5
:1000F000D0E004C02197FE010E945D07CC35D107F6
:10010000C9F70E948A030C9463070C940000809145
:10011000D0019091CF01891B990B089508950895FE
:1001200090E0FC01E859FF4F2491FC01EC55FF4F92
:100130003491FC01E057FF4FE491EE23C9F02223F4
:1001400039F0233001F1A8F4213019F1223029F1DE
:10015000F0E0EE0FFF1FE458FF4FA591B4918FB769
:10016000F894EC91611126C030953E233C938FBFEB
:1001700008952730A9F02830C9F0243049F780913C
:1001800080008F7D03C0809180008F7780938000F6
:10019000DFCF84B58F7784BDDBCF84B58F7DFBCF78
:1001A0008091B0008F778093B000D2CF8091B00063
:1001B0008F7DF9CF3E2BDACF3FB7F894809157016E
:1001C00090915801A0915901B0915A0126B5A89B70
:1001D00005C02F3F19F00196A11DB11D3FBFBA2FD9
:1001E000A92F982F8827BC01CD01620F711D811D99
:1001F000911D42E0660F771F881F991F4A95D1F71E
:10020000089520913301260F3327331F2132310502
:10021000ECF42091A901FC0190E080E0243069F029
:1002200082E00895A09133012191AC014D5E5E4FB3
:10023000A40FB52FB11D2C930196861798F38091CA
:100240003301680F6093330180E0089581E00895E1
:100250001092A90181E08093A8011092A30161E0AE
:1002600082E10E94900061E083E10E949000E9EB4E
:10027000F0E080818E7F808380818D7F808388E421
:100280008093B80085E48093BC000895CF93DF93FA
:1002900091E0909312018823B9F0C091B800D091F9
:1002A000BA008091BC008A7B8093BC0060E082E150
:1002B0000E94900060E083E10E9490000E9428016B
:1002C000D093BA00C093B800DF91CF9108950895FC
:1002D000E091CF018091D001E81730F4F0E0E155D2
:1002E000FE4F808190E008958FEF9FEF08959091E9
:1002F000CF018091D0012FEF3FEF981748F4E92FFD
:10030000F0E0E155FE4F208130E09F5F9093CF01F8
:10031000C9010895CF92DF92EF92FF920F931F933E
:10032000CF93DF937C01CB018A0120915F012223CF
:1003300089F0EB016B01C40ED51ECC15DD0569F00B
:100340006991D701ED91FC910190F081E02DC701F9
:100350000995F3CF642F0E940101C801DF91CF916D
:100360001F910F91FF90EF90DF90CF900895CF9362
:10037000DF931F92CDB7DEB7698320915F012223FF
:10038000F9F020918201203258F021E030E0FC01A8
:100390003383228390E080E00F90DF91CF91089526
:1003A00080916001E82FF0E0EF59FE4F9981908332
:1003B0008F5F809360018093820181E090E0ECCFB9
:1003C00061E0CE0101960E940101F7CF90E080E04C
:1003D000089585ED8093BC008091AB019091AC01B4
:1003E000A091AD01B091AE010796A11DB11D23E012
:1003F000B695A795979587952A95D1F72091BC003A
:1004000024FD03C01092A90108954091AB015091C1
:10041000AC016091AD017091AE01452B462B472B8D
:1004200069F30097A105B10541F025E32A95F1F79D
:1004300000000197A109B109E1CF8091AA010C94B4
:1004400046011F920F920FB60F9211242F933F93E4
:100450008F939F93AF93BF938091D1019091D201DD
:10046000A091D301B091D4013091560123E0230F24
:100470002D3758F50196A11DB11D2093560180938B
:10048000D1019093D201A093D301B093D401809174
:10049000570190915801A0915901B0915A010196CC
:1004A000A11DB11D8093570190935801A09359014C
:1004B000B0935A01BF91AF919F918F913F912F912E
:1004C0000F900FBE0F901F90189526E8230F0296ED
:1004D000A11DB11DD2CF1F920F920FB60F92112402
:1004E0002F933F934F935F936F937F938F939F933C
:1004F000AF93BF93EF93FF938091B900887F8036CD
:1005000009F44AC0F0F5883209F4A7C018F5803123
:1005100009F49BC0B8F4882309F4F9C0883009F4C1
:1005200094C0FF91EF91BF91AF919F918F917F9177
:100530006F915F914F913F912F910F900FBE0F9050
:100540001F901895883109F488C0803251F7809344
:10055000A70114C0803409F49DC040F48033B9F37E
:100560008833F9F68093A70185ECB0C0803509F493
:1005700085C0883509F496C0883499F60E94E9014F
:10058000D0CF883909F48CC038F5883729F050F479
:10059000883611F0803729F683E08093A901109204
:1005A000550157C0883809F47BC0803919F080386C
:1005B00009F0B7CF80915501803208F071C0E09109
:1005C000550181E08E0F809355018091BB00F0E0D2
:1005D000EB5CFE4F80833DC0803B39F0E0F4803A15
:1005E00009F479C0883A09F09CCF84E08093A9018E
:1005F0001092340110923301E0915D01F0915E019F
:1006000009958091330181110FC081E080933301FE
:100610001092130109C0803C09F4A6CF883C09F46C
:10062000A3CF883B09F07DCFE091340181E08E0FAC
:1006300080933401F0E0ED5EFE4F80818093BB003B
:10064000909134018091330129C08091A40180935D
:10065000BB0085EC8093BC0064CF9091A601809193
:10066000A501981758F5E091A60181E08E0F8093BF
:10067000A601F0E0ED57FE4F8081E9CFE091A601A1
:1006800081E08E0F8093A6018091BB00F0E0ED57D2
:10069000FE4F80839091A6018091A5019817C8F222
:1006A00085E8D8CFE091A60181E08E0F8093A60166
:1006B0008091BB00F0E0ED57FE4F80838091A80150
:1006C00081115CCF81E08093A30184EA8093BC0018
:1006D0001092A90126CF85EC8093BC001092A9014D
:1006E00080915501803230F4E0915501F0E0EB5CEF
:1006F000FE4F10826091550170E0E0915B01F09136
:100700005C0185E391E00995109255010ACF1092A2
:10071000A70134CF789484B5826084BD84B58160AC
:1007200084BD85B5826085BD85B5816085BD8091BC
:100730006E00816080936E00109281008091810034
:10074000826080938100809181008160809381002C
:10075000809180008160809380008091B1008460EE
:100760008093B1008091B00081608093B00080914F
:100770007A00846080937A0080917A00826080930E
:100780007A0080917A00816080937A0080917A006B
:10079000806880937A001092C1001092CF0110926D
:1007A000D00110926001109282010E9428018EE80F
:1007B00090E090935E0180935D018FE890E09093CC
:1007C0005C0180935B018FEF8093DB012FB7F8947E
:1007D0008091D1019091D201A091D301B091D40127
:1007E0002FBF8093D7019093D801A093D901B093E4
:1007F000DA011092D6011092D501E1EBF0E02491DC
:10080000EDE9F0E08491882399F090E0880F991F3A
:10081000FC01EA57FF4FA591B491FC01E458FF4F4A
:10082000859194918FB7F894EC91E22BEC938FBF64
:1008300090E4D92EC1E0D5EE25ECF22E00E010E0D8
:1008400032E0C32EEE24EA9488E0782ED0927C0029
:1008500080917A00806480937A0080917A0086FD8E
:10086000FCCF8091780060917900682F8093E80137
:10087000C0935F0170928101109260011092820119
:100880008CED91E00E94B7016090820180E28615B4
:1008900008F48CC00E94DC004B015C018091A9012E
:1008A00081115FC0C092A901C093A801E092A70185
:1008B0001092A6016092A501E1E6F1E0A3E8B1E0A3
:1008C0006812E3C01092A4018091A401806180931A
:1008D000A4018091A301813009F0DBC01092A30133
:1008E0000E94DC004B015C018091A4018093BB005D
:1008F0008091AB019091AC01A091AD01B091AE019E
:10090000892B8A2B8B2B99F00E94DC002091AB0164
:100910003091AC014091AD015091AE016819790957
:100920008A099B092617370748075907D8F180918C
:10093000BC0083FDD9CFF092BC000E94DC004B01CB
:100940005C018091A901823009F4A6C08091A701C1
:100950008F3F61F18091A701803241F18091A70121
:1009600025C08091AB019091AC01A091AD01B091F7
:10097000AE01892B8A2B8B2B09F490CF0E94DC00CF
:100980002091AB013091AC014091AD015091AE018D
:10099000681979098A099B092617370748075907F3
:1009A00008F07CCF8091AA010E944601109260015C
:1009B0001092820110925F010E94DC004B015C01E9
:1009C0008091A90181118AC0C093A901C093A80197
:1009D000E092A7011092A6011092A501C093A40174
:1009E0008091A40180618093A4018091A301813052
:1009F00009F007C11092A3010E94DC004B015C01C9
:100A00008091A4018093BB008091AB019091AC01D7
:100A1000A091AD01B091AE01892B8A2B8B2BA1F057
:100A20000E94DC002091AB013091AC014091AD01FE
:100A30005091AE01681979098A099B092617370771
:100A40004807590708F46BC08091BC0083FDD8CFDC
:100A5000F092BC000E94DC004B015C018091A90176
:100A6000813009F4D1C08091A6018111EFC080913D
:100A7000A601A3E8B1E0EFEAF1E090E0981709F4ED
:100A800053C02D9121939F5FF9CF91919D938F5FDB
:100A900017CFD093BC0051CF8091AB019091AC01A6
:100AA000A091AD01B091AE01892B8A2B8B2B09F45B
:100AB00048CF0E94DC002091AB013091AC01409105
:100AC000AD015091AE01681979098A099B09261771
:100AD00037074807590708F034CF64CF8091AB013E
:100AE0009091AC01A091AD01B091AE01892B8A2B00
:100AF0008B2B09F465CF0E94DC002091AB01309173
:100B0000AC014091AD015091AE01681979098A0993
:100B10009B09261737074807590708F051CF8091DE
:100B2000AA010E94460180E01092CF018093D0017B
:100B3000882331F08CED91E00E9477018093DB01F6
:100B40002FB7F8946091D1017091D2018091D301B7
:100B50009091D4012FBF8090D7019090D801A090A0
:100B6000D901B090DA01681979098A099B090E94B4
:100B700039064B015C018091DB0161E08F3F08F495
:100B800060E070E090E080E00E943B0620E030E012
:100B90004AE754E40E947B069B01AC01C501B40105
:100BA0000E94760618160CF581E090E02091D501A0
:100BB0003091D601232B11F090E080E09093D60184
:100BC0008093D5012FB7F8948091D1019091D201F3
:100BD000A091D301B091D4012FBF8093D7019093FE
:100BE000D801A093D901B093DA016091D5018DE0CD
:100BF0000E9490000115110509F428CE0E94000002
:100C000023CED093BC0026CF8091AB019091AC0154
:100C1000A091AD01B091AE01892B8A2B8B2B09F4E9
:100C20001DCF0E94DC002091AB013091AC014091BE
:100C3000AD015091AE01681979098A099B092617FF
:100C400037074807590708F009CF69CF81E011CF6E
:100C5000ECEDF1E01382128288EE93E0A0E0B0E0C8
:100C600084839583A683B78384E091E09183808316
:100C70000895E89409C097FB3EF49095809570958F
:100C800061957F4F8F4F9F4F9923A9F0F92F96E9D8
:100C9000BB279395F695879577956795B795F1114D
:100CA000F8CFFAF4BB0F11F460FF1BC06F5F7F4FEA
:100CB0008F4F9F4F16C0882311F096E911C07723FC
:100CC00021F09EE8872F762F05C0662371F096E805
:100CD000862F70E060E02AF09A95660F771F881FD4
:100CE000DAF7880F9695879597F908950E94E80698
:100CF00008F48FEF08950E948E060C9423070E943B
:100D0000150738F00E941C0720F0952311F00C9471
:100D10000C070C94120711240C9457070E943407F7
:100D200070F3959FC1F3950F50E0551F629FF0013E
:100D3000729FBB27F00DB11D639FAA27F00DB11D57
:100D4000AA1F649F6627B00DA11D661F829F2227E0
:100D5000B00DA11D621F739FB00DA11D621F839F67
:100D6000A00D611D221F749F3327A00D611D231F3D
:100D7000849F600D211D822F762F6A2F11249F578B
:100D800050409AF0F1F088234AF0EE0FFF1FBB1F8E
:100D9000661F771F881F91505040A9F79E3F51054D
:100DA00080F00C940C070C9457075F3FE4F3983ED7
:100DB000D4F3869577956795B795F795E7959F5FF7
:100DC000C1F7FE2B880F911D9695879597F9089589
:100DD000990F0008550FAA0BE0E8FEEF161617064C
:100DE000E807F907C0F012161306E407F50798F0B4
:100DF000621B730B840B950B39F40A2661F0232BCD
:100E0000242B252B21F408950A2609F4A140A69548
:100E10008FEF811D811D089597F99F6780E870E02D
:100E200060E008959FEF80EC089500240A94161660
:100E3000170618060906089500240A9412161306C8
:100E4000140605060895092E0394000C11F4882356
:100E500052F0BB0F40F4BF2B11F460FF04C06F5F72
:100E60007F4F8F4F9F4F089557FD9058440F551F48
:100E700059F05F3F71F04795880F97FB991F61F01C
:100E80009F3F79F087950895121613061406551F93
:100E9000F2CF4695F1DF08C0161617061806991FFF
:100EA000F1CF86957105610508940895E894BB27F4
:100EB00066277727CB0197F90895EE0FFF1F05905E
:0A0EC000F491E02D0994F894FFCF9F
:100ECA0000000000B7018A01E60167018700770187
:020EDA006801AD
:00000001FF
