:100000000C945D000C9485000C9485000C94850084
:100010000C9485000C9485000C9485000C9485004C
:100020000C9485000C9485000C9485000C9485003C
:100030000C9485000C9485000C9485000C9485002C
:100040000C9402020C9485000C9485000C9485009D
:100050000C9485000C9485000C9485000C9485000C
:100060000C944C020C948500000000080002010072
:100070000003040700000000000000000000000072
:10008000250028002B0000000000240027002A0083
:10009000040404040404040402020202020203032E
:1000A0000303030301020408102040800102040836
:1000B00010200102040810207C0411241FBECFEF81
:1000C000D8E0DEBFCDBF11E0A0E0B1E0E2E7FBE0A9
:1000D00002C005900D92A231B107D9F721E0A2E14B
:1000E000B1E001C01D92AB3CB207E1F710E0CDE5F5
:1000F000D0E004C02197FE010E94B105CC35D107A4
:10010000C9F70E946B030C94B7050C940000E091B2
:10011000B101F091B201309729F01092AC01109228
:10012000AB0109940895CF93DF93AC01E091AF0147
:10013000F091B0013097F1F09091AE018091AD0156
:100140009817C0F090E0292F30E02617370754F4B5
:10015000D901AE5EBE4F240F351FE90128812C93D3
:100160009F5FF1CF1092AE016093AD01CB01DF91A3
:10017000CF910994DF91CF91089590E0FC01E85967
:10018000FF4F2491FC01EC55FF4F3491FC01E057E7
:10019000FF4FE491EE23C9F0222339F0233001F11F
:1001A000A8F4213019F1223029F1F0E0EE0FFF1F01
:1001B000E458FF4FA591B4918FB7F894EC91611179
:1001C00026C030953E233C938FBF08952730A9F079
:1001D0002830C9F0243049F7809180008F7D03C01A
:1001E000809180008F7780938000DFCF84B58F77F8
:1001F00084BDDBCF84B58F7DFBCF8091B0008F773E
:100200008093B000D2CF8091B0008F7DF9CF3E2B8C
:10021000DACF20915801260F3327331F21323105C1
:10022000ECF420917C01FC0190E080E0243069F046
:1002300082E00895A09158012191AC01485C5E4F85
:10024000A40FB52FB11D2C930196861798F38091BA
:100250005801680F6093580180E0089581E0089587
:1002600010927C0181E080937E0110927D0161E01B
:1002700082E10E94BD0061E083E10E94BD00E9EBE4
:10028000F0E080818E7F808380818D7F808388E411
:100290008093B80085E48093BC0008950895E091B0
:1002A000AE018091AD01E81730F4F0E0EE5EFE4F54
:1002B000808190E008958FEF9FEF08959091AE01B7
:1002C0008091AD012FEF3FEF981748F4E92FF0E050
:1002D000EE5EFE4F208130E09F5F9093AE01C9013A
:1002E00008958091AD019091AE01891B990B0895FD
:1002F000CF93DF93CB01EA01642F0E940901CE0165
:10030000DF91CF910895CF93DF931F92CDB7DEB7E2
:10031000698361E0CE0101960E94090181E090E0CD
:100320000F90DF91CF9108956091CA0183EB91E026
:100330000C94830190E080E008959091AD0180914C
:10034000AE01981739F083EB91E00E945E01809333
:10035000C501F3CF0895CF93DF9385ED8093BC0063
:100360008091340190913501A0913601B09137010F
:100370000796A11DB11D23E0B695A7959795879582
:100380002A95D1F72091BC0024FD03C010927C0176
:1003900036C0409134015091350160913601709121
:1003A0003701452B462B472B69F30097A105B10573
:1003B00041F025E32A95F1F700000197A109B10961
:1003C000E1CF8091330191E0909332018823B9F01D
:1003D000C091B800D091BA008091BC008A7B809314
:1003E000BC0060E082E10E94BD0060E083E10E9409
:1003F000BD000E943001D093BA00C093B800DF91D5
:10040000CF9108951F920F920FB60F9211242F9340
:100410003F938F939F93AF93BF938091BF01909130
:10042000C001A091C101B091C2013091A60123E0A9
:10043000230F2D3758F50196A11DB11D2093A6015C
:100440008093BF019093C001A093C101B093C201FA
:100450008091A2019091A301A091A401B091A50166
:100460000196A11DB11D8093A2019093A301A093B9
:10047000A401B093A501BF91AF919F918F913F913E
:100480002F910F900FBE0F901F90189526E8230F05
:100490000296A11DB11DD2CF1F920F920FB60F92DF
:1004A00011242F933F934F935F936F937F938F9379
:1004B0009F93AF93BF93EF93FF938091B900887F91
:1004C000803609F44AC0F0F5883209F4A7C018F55F
:1004D000803109F49BC0B8F4882309F4F9C088304E
:1004E00009F494C0FF91EF91BF91AF919F918F91CB
:1004F0007F916F915F914F913F912F910F900FBE20
:100500000F901F901895883109F488C0803251F7F8
:1005100080937B0114C0803409F49DC040F4803383
:10052000B9F38833F9F680937B0185ECB0C0803550
:1005300009F485C0883509F496C0883499F60E947C
:10054000AB01D0CF883909F48CC038F5883729F051
:1005500050F4883611F0803729F683E080937C01CF
:1005600010927A0157C0883809F47BC0803919F09D
:10057000803809F0B7CF80917A01803208F071C0DD
:10058000E0917A0181E08E0F80937A018091BB0027
:10059000F0E0E65AFE4F80833DC0803B39F0E0F446
:1005A000803A09F479C0883A09F09CCF84E08093BE
:1005B0007C011092590110925801E091A901F0912B
:1005C000AA0109958091580181110FC081E08093A3
:1005D00058011092380109C0803C09F4A6CF883C2C
:1005E00009F4A3CF883B09F07DCFE091590181E068
:1005F0008E0F80935901F0E0E85CFE4F808180937C
:10060000BB00909159018091580129C08091A101AE
:100610008093BB0085EC8093BC0064CF9091A001D7
:1006200080919F01981758F5E091A00181E08E0F0D
:100630008093A001F0E0E158FE4F8081E9CFE09186
:10064000A00181E08E0F8093A0018091BB00F0E0BB
:10065000E158FE4F80839091A00180919F019817EF
:10066000C8F285E8D8CFE091A00181E08E0F809399
:10067000A0018091BB00F0E0E158FE4F80838091A3
:100680007E0181115CCF81E080937D0184EA8093BB
:10069000BC0010927C0126CF85EC8093BC001092A8
:1006A0007C0180917A01803230F4E0917A01F0E0AF
:1006B000E65AFE4F108260917A0170E0E091A70146
:1006C000F091A8018AE591E0099510927A010ACF8C
:1006D00010927B0134CF789484B5826084BD84B558
:1006E000816084BD85B5826085BD85B5816085BD2D
:1006F00080916E00816080936E00109281008091E5
:10070000810082608093810080918100816080936C
:100710008100809180008160809380008091B10091
:1007200084608093B1008091B00081608093B000BC
:1007300080917A00846080937A0080917A00826050
:1007400080937A0080917A00816080937A00809112
:100750007A00806880937A001092C1001092AE01F6
:100760001092AD011092AC011092AB010E943001C9
:1007700087E890E09093AA018093A90183E990E033
:100780009093A8018093A70180E18093BA008DE93E
:1007900091E09093B0018093AF0184E991E0909350
:1007A000B2018093B1018FEF8093C5012FB7F89408
:1007B0008091BF019091C001A091C101B091C2018F
:1007C0002FBF8093C6019093C701A093C801B09337
:1007D000C9011092C4011092C301E1EBF0E0249131
:1007E000EDE9F0E08491882399F090E0880F991F5B
:1007F000FC01EA57FF4FA591B491FC01E458FF4F6B
:10080000859194918FB7F894EC91E22BEC938FBF84
:1008100010E4C0E0D0E010937C0080917A00806406
:1008200080937A0080917A0086FDFCCF80917800D9
:10083000909179008093CA012FB7F8946091BF011D
:100840007091C0018091C1019091C2012FBFC090F1
:10085000C601D090C701E090C801F090C9016C19A1
:100860007D098E099F090E948D046B017C01809196
:10087000C50161E08F3F08F460E070E090E080E047
:100880000E948F0420E030E04AE754E40E94CF0445
:100890009B01AC01C701B6010E94CA0418160CF5F1
:1008A00081E090E02091C3013091C401232B11F02D
:1008B00090E080E09093C4018093C3012FB7F89437
:1008C0008091BF019091C001A091C101B091C2017E
:1008D0002FBF8093C6019093C701A093C801B09326
:1008E000C9016091C3018DE00E94BD00209709F409
:1008F00092CF0E9400008FCFE3EBF1E013821282CF
:1009000088EE93E0A0E0B0E084839583A683B7836C
:1009100084E091E0918380830895E89409C097FB77
:100920003EF490958095709561957F4F8F4F9F4FC6
:100930009923A9F0F92F96E9BB279395F69587950A
:1009400077956795B795F111F8CFFAF4BB0F11F4CD
:1009500060FF1BC06F5F7F4F8F4F9F4F16C0882374
:1009600011F096E911C0772321F09EE8872F762FAA
:1009700005C0662371F096E8862F70E060E02AF0EB
:100980009A95660F771F881FDAF7880F96958795D7
:1009900097F908950E943C0508F48FEF08950E948E
:1009A000E2040C9477050E94690538F00E947005F6
:1009B00020F0952311F00C9460050C946605112429
:1009C0000C94AB050E94880570F3959FC1F3950FB9
:1009D00050E0551F629FF001729FBB27F00DB11DC3
:1009E000639FAA27F00DB11DAA1F649F6627B00D53
:1009F000A11D661F829F2227B00DA11D621F739F3C
:100A0000B00DA11D621F839FA00D611D221F749F49
:100A10003327A00D611D231F849F600D211D822F90
:100A2000762F6A2F11249F5750409AF0F1F08823B7
:100A30004AF0EE0FFF1FBB1F661F771F881F9150E4
:100A40005040A9F79E3F510580F00C9460050C942E
:100A5000AB055F3FE4F3983ED4F3869577956795B1
:100A6000B795F795E7959F5FC1F7FE2B880F911D0E
:100A70009695879597F90895990F0008550FAA0B39
:100A8000E0E8FEEF16161706E807F907C0F01216A1
:100A90001306E407F50798F0621B730B840B950BA4
:100AA00039F40A2661F0232B242B252B21F40895F9
:100AB0000A2609F4A140A6958FEF811D811D089596
:100AC00097F99F6780E870E060E008959FEF80EC01
:100AD000089500240A9416161706180609060895A4
:100AE00000240A9412161306140605060895092E0A
:100AF0000394000C11F4882352F0BB0F40F4BF2B79
:100B000011F460FF04C06F5F7F4F8F4F9F4F0895B8
:100B100057FD9058440F551F59F05F3F71F04795AE
:100B2000880F97FB991F61F09F3F79F08795089593
:100B3000121613061406551FF2CF4695F1DF08C0B2
:100B4000161617061806991FF1CF869571056105CF
:100B500008940895E894BB2766277727CB0197F977
:100B60000895EE0FFF1F0590F491E02D0994F8947D
:020B7000FFCFB5
:100B720000000000830178019A014E0171015E01BB
:020B82004F0121
:00000001FF
