:100000000C9458000C9480000C9480000C94800098
:100010000C9480000C9480000C9480000C94800060
:100020000C9480000C9480000C9480000C94800050
:100030000C9480000C9480000C9480000C94800040
:100040000C941E050C9480000C9480000C9480008D
:100050000C9480000C9480000C9480000C94800020
:100060000C9468050C948000000000002500280016
:100070002B00040404040404040402020202020229
:10008000030303030303010204081020408001025C
:1000900004081020010204081020000000080002DB
:1000A00001000003040700000000000000008706B4
:1000B00011241FBECFEFD8E0DEBFCDBF11E0A0E01E
:1000C000B1E0E2E5F8E102C005900D92A83DB1076C
:1000D000D9F722E0A8EDB1E001C01D92A73BB2071D
:1000E000E1F710E0C8E5D0E004C02197FE010E94CE
:1000F000120CC735D107C9F70E94A7060C94270C2C
:100100000C94000008950895AF92BF92CF92DF92B1
:10011000EF92FF920F931F93CF93DF936C017B01BC
:100120008B01040F151FEB015E01AE18BF08C0174D
:10013000D10759F06991D601ED91FC910190F081C0
:10014000E02DC6010995892B79F7C501DF91CF9183
:100150001F910F91FF90EF90DF90CF90BF90AF90E5
:10016000089590E0FC01E656FF4F2491FC01EA5708
:10017000FF4F3491FC01EE58FF4FE491EE23C9F09C
:10018000222339F0233001F1A8F4213019F1223073
:1001900029F1F0E0EE0FFF1FE859FF4FA591B49150
:1001A0008FB7F894EC91611126C030953E233C93B3
:1001B0008FBF08952730A9F02830C9F0243049F7BF
:1001C000809180008F7D03C0809180008F77809325
:1001D0008000DFCF84B58F7784BDDBCF84B58F7D82
:1001E000FBCF8091B0008F778093B000D2CF809109
:1001F000B0008F7DF9CF3E2BDACF3FB7F8948091D6
:10020000210290912202A0912302B091240226B5EE
:10021000A89B05C02F3F19F00196A11DB11D3FBF3E
:10022000BA2FA92F982F8827BC01CD01620F711D0D
:10023000811D911D42E0660F771F881F991F4A9507
:10024000D1F708958F929F92AF92BF92CF92DF9293
:10025000EF92FF924B015C010E94FD006B017C015B
:100260000E94FD006C197D098E099F09683E73404C
:1002700081059105A8F321E0821A9108A108B1082F
:1002800088EEC80E83E0D81EE11CF11C8114910495
:10029000A104B10429F7FF90EF90DF90CF90BF90B9
:1002A000AF909F908F90089508952091F901260FA7
:1002B0003327331F21323105ECF420917502FC0104
:1002C00090E080E0243069F082E00895A091F90187
:1002D0002191AC0147525E4FA40FB52FB11D2C9355
:1002E0000196861798F38091F901680F6093F901E0
:1002F00080E0089581E008951092750281E0809376
:10030000740210924F0261E082E10E94B10061E04C
:1003100083E10E94B100E9EBF0E080818E7F808371
:1003200080818D7F808388E48093B80085E480930A
:10033000BC000895CF93DF9391E09093D801882378
:10034000B9F0C091B800D091BA008091BC008A7B0E
:100350008093BC0060E082E10E94B10060E083E134
:100360000E94B1000E947C01D093BA00C093B800F3
:10037000DF91CF9108958F929F92AF92BF92CF92CB
:10038000DF92EF92FF920F931F93CF93DF93D09161
:100390009E02D13208F0D7C0182FC0919D020E9452
:1003A000FD006B017C018091750281116BC082E0C0
:1003B00080937502109374028FEF809373021092F2
:1003C0007202D0937102ADE7B2E0E1E5F2E080E0C5
:1003D000D81391C01092500280915002CC0FC82BBC
:1003E000C093500280914F02813009F088C0109272
:1003F0004F020E94FD006B017C01809150028093AE
:10040000BB008091770290917802A0917902B0911F
:100410007A02892B8A2B8B2BA1F00E94FD00009180
:100420007702109178022091790230917A026C194A
:100430007D098E099F09061717072807390708F451
:1004400042C08091BC0083FDD8CF85EC8093BC0076
:100450000E94FD006B017C0180917502823009F4DD
:1004600050C0809173028F3F09F46FC08091730276
:10047000803209F46CC080917302803309F469C042
:1004800084E026C08091770290917802A091790251
:10049000B0917A02892B8A2B8B2B09F484CF0E948E
:1004A000FD008090770290907802A0907902B09041
:1004B0007A026C197D098E099F0986169706A8068F
:1004C000B90608F070CF809176020E949A0185E00B
:1004D00010927C0210929E0210927B02DF91CF91CB
:1004E0001F910F91FF90EF90DF90CF90BF90AF9052
:1004F0009F908F9008959D9191938F5F69CF85EE26
:10050000A5CF8091770290917802A0917902B09165
:100510007A02892B8A2B8B2B09F49ECF0E94FD0037
:1005200000917702109178022091790230917A023D
:100530006C197D098E099F090617170728073907C7
:1005400008F08ACFC0CF81E0C3CF80E0C1CF82E086
:10055000BFCF83E0BDCFCF92DF92EF92FF920F9398
:100560001F93CF93DF93D82FC62F613208F098C026
:100570000E94FD006B017C018091750281116BC0AE
:1005800081E080937502809374029FEF90937302D1
:10059000109272029C0F909371028093500280918E
:1005A0005002DD0FD82BD093500280914F02813042
:1005B00009F078C010924F020E94FD006B017C018F
:1005C000809150028093BB008091770290917802D5
:1005D000A0917902B0917A02892B8A2B8B2BA1F002
:1005E0000E94FD000091770210917802209179021B
:1005F00030917A026C197D098E099F090617170739
:100600002807390708F448C08091BC0083FDD8CF83
:1006100085EC8093BC000E94FD006B017C01809101
:100620007502813009F440C0809172028C1710F479
:10063000C0917202E1E5F2E0AFE2B2E080E08C133B
:1006400055C08C2FDF91CF911F910F91FF90EF90AC
:10065000DF90CF9008958091770290917802A091D9
:100660007902B0917A02892B8A2B8B2B09F484CFE3
:100670000E94FD000091770210917802209179028A
:1006800030917A026C197D098E099F0906171707A8
:100690002807390708F070CF809176020E949A01EE
:1006A000C0E0CFCF85EEB5CF8091770290917802F0
:1006B000A0917902B0917A02892B8A2B8B2B09F4B5
:1006C000AECF0E94FD000091770210917802209138
:1006D000790230917A026C197D098E099F090617FB
:1006E00017072807390708F09ACFD6CF91919D9325
:1006F0008F5FA5CF0895E0912A0280912902E81723
:1007000030F4F0E0E15DFD4F808190E008958FEFDF
:100710009FEF089590912A02809129022FEF3FEFD9
:10072000981748F4E92FF0E0E15DFD4F208130E0BB
:100730009F5F90932A02C9010895809129029091A8
:100740002A02891B990B0895CF92DF92EF92FF92B4
:100750000F931F93CF93DF937C01CB018A012091EC
:100760007B02222389F0EB016B01C40ED51ECC1550
:10077000DD0569F06991D701ED91FC910190F0815F
:10078000E02DC7010995F3CF642F0E945501C801E0
:10079000DF91CF911F910F91FF90EF90DF90CF905D
:1007A0000895CF93DF931F92CDB7DEB76983209171
:1007B0007B022223F9F020919E02203258F021E0A2
:1007C00030E0FC013383228390E080E00F90DF91E2
:1007D000CF91089580917C02E82FF0E0E358FD4F1F
:1007E000998190838F5F80937C0280939E0281E049
:1007F00090E0ECCF61E0CE0101960E945501F7CF69
:10080000FC01248131E030937B0220939D02109201
:100810007C0210929E028385682B8FE992E00E94F1
:10082000D10381E00C94BB0190E080E00895FC01CD
:1008300001900020E9F73197AF01481B590BBC012B
:100840008BEA92E00C9484008F929F92AF92BF92B9
:100850000F931F93CF93DF93CDB7DEB7A1970FB65A
:10086000F894DEBF0FBECDBF19A2423008F44AE0B3
:100870008E010F5D1F4F842E912CB12CA12CA50150
:1008800094010E94F00BE62FB901CA01EA30F4F49A
:10089000E05DD801EE938D01232B242B252B79F7D6
:1008A00090E080E0109719F0CD010E941704A19606
:1008B0000FB6F894DEBF0FBECDBFDF91CF911F9171
:1008C0000F91BF90AF909F908F900895E95CE1CF1A
:1008D000009711F00C94170490E080E00895CF93F6
:1008E000DF930E941704EC0180E391E00E9417045B
:1008F0008C0F9D1FDF91CF9108950F931F93CF937E
:100900008C01C62F0E9400046C2F6460C8010E94F5
:1009100000046C2F6B7FC8010E94000483EC90E000
:100920000197F1F7CF911F910F9108950F931F93A6
:10093000CF93DF938C01D62FC42F607F642B0E944E
:100940007D0480E1D89FB00111246C2BC801DF9198
:10095000CF911F910F910C947D04CF93DF93CDB76E
:10096000DEB728970FB6F894DEBF0FBECDBF98E074
:10097000E0E0F1E0DE01119601900D929A95E1F729
:100980009091B302981710F48FEF890F90E0880FC1
:10099000991F21E030E02C0F3D1F820F931FFC01B7
:1009A00060816F5F606840E08BEA92E028960FB646
:1009B000F894DEBF0FBECDBFDF91CF910C949604AB
:1009C00041E00E94960481E090E0089585ED8093D7
:1009D000BC008091770290917802A0917902B09149
:1009E0007A020796A11DB11D23E0B695A7959795AC
:1009F00087952A95D1F72091BC0024FD03C0109261
:100A000075020895409177025091780260917902C1
:100A100070917A02452B462B472B69F30097A1056D
:100A2000B10541F025E32A95F1F700000197A109EE
:100A3000B109E1CF809176020C949A011F920F9236
:100A40000FB60F9211242F933F938F939F93AF93E1
:100A5000BF9380911D0290911E02A0911F02B09140
:100A6000200230911C0223E0230F2D3758F5019608
:100A7000A11DB11D20931C0280931D0290931E02A4
:100A8000A0931F02B0932002809121029091220234
:100A9000A0912302B09124020196A11DB11D809363
:100AA000210290932202A0932302B0932402BF91CB
:100AB000AF919F918F913F912F910F900FBE0F900B
:100AC0001F90189526E8230F0296A11DB11DD2CFC5
:100AD0001F920F920FB60F9211242F933F934F93B3
:100AE0005F936F937F938F939F93AF93BF93EF9396
:100AF000FF938091B900887F803609F44AC0F0F5F1
:100B0000883209F4A7C018F5803109F49BC0B8F405
:100B1000882309F4F9C0883009F494C0FF91EF915B
:100B2000BF91AF919F918F917F916F915F914F9105
:100B30003F912F910F900FBE0F901F901895883105
:100B400009F488C0803251F78093730214C0803456
:100B500009F49DC040F48033B9F38833F9F68093EB
:100B6000730285ECB0C0803509F485C0883509F47E
:100B700096C0883499F60E94E604D0CF883909F4EB
:100B80008CC038F5883729F050F4883611F080375A
:100B900029F683E08093750210921B0257C08838B3
:100BA00009F47BC0803919F0803809F0B7CF809103
:100BB0001B02803208F071C0E0911B0281E08E0FB1
:100BC00080931B028091BB00F0E0E550FE4F8083D4
:100BD0003DC0803B39F0E0F4803A09F479C0883AAE
:100BE00009F09CCF84E0809375021092FA01109274
:100BF000F901E0912702F091280209958091F9010D
:100C000081110FC081E08093F9011092D90109C0D0
:100C1000803C09F4A6CF883C09F4A3CF883B09F0B7
:100C20007DCFE091FA0181E08E0F8093FA01F0E030
:100C3000E752FE4F80818093BB009091FA01809132
:100C4000F90129C0809150028093BB0085EC80930C
:100C5000BC0064CF9091720280917102981758F590
:100C6000E091720281E08E0F80937202F0E0EF5A01
:100C7000FD4F8081E9CFE091720281E08E0F809379
:100C800072028091BB00F0E0EF5AFD4F808390919B
:100C90007202809171029817C8F285E8D8CFE0916E
:100CA000720281E08E0F809372028091BB00F0E0AF
:100CB000EF5AFD4F80838091740281115CCF81E0F7
:100CC00080934F0284EA8093BC001092750226CF75
:100CD00085EC8093BC001092750280911B028032DB
:100CE00030F4E0911B02F0E0E550FE4F108260917D
:100CF0001B0270E0E0912502F09126028BEF91E05B
:100D0000099510921B020ACF1092730234CFEFE9BB
:100D1000F2E01382128288EE93E0A0E0B0E08483D8
:100D20009583A683B78386E191E091838083EBEA84
:100D3000F2E01382128288E291E09183808380E264
:100D4000848384E1818784E0828713860895CF932A
:100D5000DF93CDB7DEB7C856D1090FB6F894DEBF22
:100D60000FBECDBF789484B5826084BD84B58160A8
:100D700084BD85B5826085BD85B5816085BD809166
:100D80006E00816080936E001092810080918100DE
:100D900082608093810080918100816080938100D6
:100DA000809180008160809380008091B100846098
:100DB0008093B1008091B00081608093B0008091F9
:100DC0007A00846080937A0080917A0082608093B8
:100DD0007A0080917A00816080937A0080917A0015
:100DE000806880937A001092C10010922A021092BB
:100DF0007C0210929E020E947C0182E890E0909317
:100E000028028093270283E890E090932602809343
:100E1000250281E080937B0288E680939D0260E05A
:100E20008FE992E00E94D10381E00E94BB0161E062
:100E300088E60E94AB02809329028FE992E00E942B
:100E40008A0387FF1BC283E391E00E946F048091B5
:100E5000B00288608093B00264E0F62EF092B30294
:100E600062E370E080E090E00E9422016091B602AF
:100E70008BEA92E00E94000468EE73E080E090E06C
:100E80000E94220160E38BEA92E00E947D040BE461
:100E900016E4C8010197F1F760E38BEA92E00E9443
:100EA0007D04C8010197F1F760E38BEA92E00E94AC
:100EB0007D0483E592E00197F1F760E28BEA92E02E
:100EC0000E947D046091B002606240E08BEA92E093
:100ED0000E949604F092B10240E06CE08BEA92E04E
:100EE0000E94960440E061E08BEA92E00E94960442
:100EF0000BE31FE1C8010197F1F782E08093B20292
:100F000040E066E08BEA92E00E94960440E062E0F6
:100F10008BEA92E00E949604C8010197F1F788E0FD
:100F20008093B60260E08BEA92E00E94000480E0C9
:100F30000E94AD0487E591E00E94680481E00E9470
:100F4000AD0487E691E00E94680482E00E94AD044F
:100F500085E791E00E94680483E00E94AD0487E881
:100F600091E00E9468047BE3872E7FE1972ECE01FB
:100F700001965C01E0E02E2EE0E03E2E68EE73E08C
:100F800080E090E00E94220140E061E08BEA92E084
:100F90000E949604C4010197F1F768EE73E080E0C7
:100FA00090E00E94220181E080937B0298E690937A
:100FB0009D0210927C0210929E0260E08FE992E006
:100FC0000E94D10381E00E94BB0167E088E60E9495
:100FD000AB0210922A02809329028FE992E00E94CC
:100FE0008A038F77282F30E0B4E035952795BA959E
:100FF000E1F7922F990F990FF22EF91AFF0CF80EC4
:101000008FE992E00E948A039C0114E035952795B0
:101010001A95E1F72F703327922F990F990FE22E2F
:10102000E91AEE0CE80E8FE992E00E948A039C0117
:1010300004E0359527950A95E1F72F703327922F15
:10104000990F990FD22ED91ADD0CD80E8FE992E0A4
:101050000E948A038FE992E00E948A039C0194E037
:10106000359527959A95E1F72F703327922F990F91
:10107000990F022F091B000F080F8FE992E00E94C1
:101080008A039C0144E0359527954A95E1F72F7036
:101090003327922F990F990F122F191B110F180F29
:1010A0008FE992E00E948A039C0154E035952795D0
:1010B0005A95E1F72F703327922F990F990FC22E6F
:1010C000C91ACC0CC80E44E650E068E071E0C501D6
:1010D0000E94180CA0E4A0937C0080917A008064A8
:1010E00080937A0080917A0086FDFCCF8091780011
:1010F00060917900762F682F072E000C880B990BD2
:101100000E94BD0A20E030E04AEF5EE30E94720BCD
:1011100060932B0270932C0280932D0290932E02E9
:1011200080E00E94AD048CE991E00E946804409048
:101130002B0250902C0260902D0270902E02A30181
:101140009201C301B2010E94DF0B882309F499C008
:1011500086EA91E00E94170482EB91E00E946F04FE
:1011600064EF71E080E090E00E94220181E00E9443
:10117000AD0486EB91E00E94680464EF71E080E0CA
:1011800090E00E94220182E00E94AD042AE08D2DB1
:10119000622F0E94E40B40E3480F50E3590F8E2D5D
:1011A0000E94E40B20E3622E680E30E3532E590EAA
:1011B0008F2D0E94E40B70E3F72EF80EE0E3EE2E85
:1011C000E90E802F0E94E40B00E3080FF0E3DF2E0E
:1011D000D90E812F0E94E40B10E3180FA0E37A2EA2
:1011E000790E8C2D0E94E40B805D905DF501D50198
:1011F0000D900020E9F79D012A193B092250310981
:10120000BF016A197B096217730708F0F6C02081D5
:10121000283629F42181283611F440835183208116
:101220002D3629F421812D3611F4608251822081DE
:10123000233729F42181233711F4F082E1822081C0
:10124000243429F42181243411F40083D1822081B3
:101250002D3429F421812D3411F4108371822081E1
:10126000293551F42381293509F0C0C0B2E3B08398
:1012700020E32183828393833196B9CF87E491E081
:10128000E4CDD301C201BF77A9968CAF9DAFAEAFBD
:10129000BFAFA9972FEF3FEF4FE75FE7BC01CD014D
:1012A0000E94DF0B811111C02FEF3FEF4FE75FE787
:1012B000A9966CAD7DAD8EAD9FADA9970E94870AB2
:1012C00018161CF48AEA91E045CF2FEF3FEF4FE765
:1012D0005FE4C301B2010E946D0B18161CF48EEA84
:1012E00091E038CF2FEF3FEF4FE75FECC301B20142
:1012F0000E94870A87FDF3CF20E030E0A901C301F7
:10130000B2010E94870A87FF0AC041E06DE28BEAC2
:1013100092E00E94960477FA709477F870942AE02D
:1013200037ED43EA5BE3C301B2010E941B0AA996B1
:101330006CAF7DAF8EAF9FAFA9970E948C0A2B0137
:101340003C010E94BB0A9B01AC01A9966CAD7DAD2E
:101350008EAD9FADA9970E941A0AA9966CAF7DAF7A
:101360008EAF9FAFA9974AE0C301B2010E94240447
:1013700041E06EE28BEA92E00E94960420E030E0C9
:1013800040E251E4A9966CAD7DAD8EAD9FADA997BD
:101390000E94720BA9966CAF7DAF8EAF9FAFA997DD
:1013A0000E948C0A2B01712C612C4AE0C301B2010E
:1013B0000E942404C301B2010E94BB0A9B01AC013C
:1013C000A9966CAD7DAD8EAD9FADA9970E941A0A0E
:1013D00020E030E040E251E40E94720B0E948C0A4F
:1013E00090E080E04AE00E942404B6CE21812935B5
:1013F00009F042CF808391833FCFC5010E946804EA
:1014000064EF71E080E090E00E94220183E00E949E
:10141000AD0487EC91E00E94680468EE73E080E020
:1014200090E00E9422012114310409F4A7CD0E940A
:101430000000A4CD5058BB27AA270E94320A0C9462
:10144000330B0E94250B38F00E942C0B20F039F44E
:101450009F3F19F426F40C94220B0EF4E095E7FB61
:101460000C941C0BE92F0E94440B58F3BA17620727
:1014700073078407950720F079F4A6F50C94660BA2
:101480000EF4E0950B2EBA2FA02D0B01B90190019F
:101490000C01CA01A0011124FF27591B99F0593FE3
:1014A00050F4503E68F11A16F040A22F232F342F2B
:1014B0004427585FF3CF469537952795A795F04079
:1014C0005395C9F77EF41F16BA0B620B730B840B8E
:1014D000BAF09150A1F0FF0FBB1F661F771F881F46
:1014E000C2F70EC0BA0F621F731F841F48F487959E
:1014F00077956795B795F7959E3F08F0B0CF939590
:10150000880F08F09927EE0F9795879508950E9408
:10151000F80A08F481E008950E944C0B88F09F5768
:1015200098F0B92F9927B751B0F0E1F0660F771F07
:10153000881F991F1AF0BA95C9F714C0B13091F0FD
:101540000E94660BB1E008950C94660B672F782F0C
:101550008827B85F39F0B93FCCF3869577956795C2
:10156000B395D9F73EF490958095709561957F4F2E
:101570008F4F9F4F0895E89409C097FB3EF49095D4
:101580008095709561957F4F8F4F9F4F9923A9F05C
:10159000F92F96E9BB279395F695879577956795EB
:1015A000B795F111F8CFFAF4BB0F11F460FF1BC02F
:1015B0006F5F7F4F8F4F9F4F16C0882311F096E9C2
:1015C00011C0772321F09EE8872F762F05C0662370
:1015D00071F096E8862F70E060E02AF09A95660F29
:1015E000771F881FDAF7880F9695879597F90895E2
:1015F000990F0008550FAA0BE0E8FEEF1616170624
:10160000E807F907C0F012161306E407F50798F08B
:10161000621B730B840B950B39F40A2661F0232BA4
:10162000242B252B21F408950A2609F4A140A69520
:101630008FEF811D811D089597F99F6780E870E005
:1016400060E008959FEF80EC089500240A94161638
:10165000170618060906089500240A9412161306A0
:10166000140605060895092E0394000C11F488232E
:1016700052F0BB0F40F4BF2B11F460FF04C06F5F4A
:101680007F4F8F4F9F4F089557FD9058440F551F20
:1016900059F05F3F71F04795880F97FB991F61F0F4
:1016A0009F3F79F087950895121613061406551F6B
:1016B000F2CF4695F1DF08C0161617061806991FD7
:1016C000F1CF86957105610508940895E894BB27CC
:1016D00066277727CB0197F908950E94F80A08F446
:1016E0008FEF08950E94850B0C94330B0E94250BFD
:1016F00038F00E942C0B20F0952311F00C941C0B59
:101700000C94220B11240C94670B0E94440B70F371
:10171000959FC1F3950F50E0551F629FF001729F96
:10172000BB27F00DB11D639FAA27F00DB11DAA1FA5
:10173000649F6627B00DA11D661F829F2227B00DF2
:10174000A11D621F739FB00DA11D621F839FA00D7D
:10175000611D221F749F3327A00D611D231F849FCD
:10176000600D211D822F762F6A2F11249F57504024
:101770009AF0F1F088234AF0EE0FFF1FBB1F661F9F
:10178000771F881F91505040A9F79E3F510580F068
:101790000C941C0B0C94670B5F3FE4F3983ED4F35E
:1017A000869577956795B795F795E7959F5FC1F70C
:1017B000FE2B880F911D9695879597F908950E94A5
:1017C000F80A880B990B0895991B79E004C0991FBA
:1017D000961708F0961B881F7A95C9F7809508958B
:1017E000A1E21A2EAA1BBB1BFD010DC0AA1FBB1F25
:1017F000EE1FFF1FA217B307E407F50720F0A21B97
:10180000B30BE40BF50B661F771F881F991F1A9403
:1018100069F760957095809590959B01AC01BD012D
:10182000CF010895EE0FFF1F0590F491E02D09946C
:10183000FB01DC014150504048F001900D92002026
:10184000C9F701C01D9241505040E0F70895F89447
:02185000FFCFC8
:10185200000040001400540068683A6D6D3A7373DA
:10186200000000000000D103A40314047A039D03C6
:101872008A037B0300000000E00484001404540186
:101882000D0A00525443206973204E4F5420727542
:101892006E6E696E6721005254432069732072751F
:1018A2006E6E696E6721006D6963726F636F6E742D
:1018B200726F6C65726500776F72647072657373B4
:1018C2002E636F6D004C434420323078342049320D
:1018D200432054455354002E2E2E2E2E2E2E2E2EC5
:1018E2002E2E2E2E2E2E2E2E2E2E2E0043454C53D5
:1018F2004955533A20006E616E00696E66006F763C
:1019020066002A4320004C696E65203220544553FC
:1019120054204F4B2020004C696E652034205445E2
:081922005354204F4B2020001C
:00000001FF
