:100000000C9458000C9480000C9480000C94800098
:100010000C9480000C9480000C9480000C94800060
:100020000C9480000C9480000C9480000C94800050
:100030000C9480000C9480000C9480000C94800040
:100040000C94BB030C9480000C9480000C948000F2
:100050000C9480000C9480000C9480000C94800020
:100060000C9405040C94800000000000250028007A
:100070002B00040404040404040402020202020229
:10008000030303030303010204081020408001025C
:1000900004081020010204081020000000080002DB
:1000A000010000030407000000000000000020051C
:1000B00011241FBECFEFD8E0DEBFCDBF11E0A0E01E
:1000C000B1E0E4E1FDE002C005900D92AC3CB10767
:1000D000D9F722E0ACECB1E001C01D92A238B20722
:1000E000E1F710E0C8E5D0E004C02197FE010E94CE
:1000F0008206C735D107C9F70E9440050C948806CF
:100100000C940000AF92BF92CF92DF92EF92FF92D9
:100110000F931F93CF93DF936C017B018B01040F2F
:10012000151FEB015E01AE18BF08C017D10759F0CB
:100130006991D601ED91FC910190F081E02DC6010D
:100140000995892B79F7C501DF91CF911F910F9107
:10015000FF90EF90DF90CF90BF90AF90089590E028
:10016000FC01E656FF4F2491FC01EA57FF4F349102
:10017000FC01EE58FF4FE491EE23C9F0222339F041
:10018000233001F1A8F4213019F1223029F1F0E0F7
:10019000EE0FFF1FE859FF4FA591B4918FB7F89468
:1001A000EC91611126C030953E233C938FBF08959A
:1001B0002730A9F02830C9F0243049F78091800019
:1001C0008F7D03C0809180008F7780938000DFCF88
:1001D00084B58F7784BDDBCF84B58F7DFBCF8091D5
:1001E000B0008F778093B000D2CF8091B0008F7D28
:1001F000F9CF3E2BDACF3FB7F89480916602909109
:100200006702A0916802B091690226B5A89B05C05B
:100210002F3F19F00196A11DB11D3FBFBA2FA92F85
:10022000982F8827BC01CD01620F711D811D911D82
:1002300042E0660F771F881F991F4A95D1F70895EE
:100240008F929F92AF92BF92CF92DF92EF92FF92E6
:100250004B015C010E94FB006B017C010E94FB00D2
:100260006C197D098E099F09683E734081059105CF
:10027000A8F321E0821A9108A108B10888EEC80EFF
:1002800083E0D81EE11CF11C81149104A104B10487
:1002900029F7FF90EF90DF90CF90BF90AF909F90A5
:1002A0008F90089508951F93CF93DF93C1E0C0937B
:1002B000CD01882399F1D091B8001091BA008091B6
:1002C000BC008A7B8093BC0060E082E10E94AF00AA
:1002D00060E083E10E94AF0010923702C0933602C3
:1002E0001092110261E082E10E94AF0061E083E1BF
:1002F0000E94AF008091B9008E7F8093B9008091F9
:10030000B9008D7F8093B90088E48093B80085E4BC
:100310008093BC001093BA00D093B800DF91CF91C6
:100320001F9108952091EE01260F3327331F2132AC
:100330003105ECF420913702FC0190E080E024309C
:1003400069F082E00895A091EE012191AC01425341
:100350005E4FA40FB52FB11D2C930196861798F30D
:100360008091EE01680F6093EE0180E0089581E0D6
:10037000089508958FEF9FEF08958FEF9FEF0895F1
:100380008091CC0190E09195819591090895CF924B
:10039000DF92EF92FF920F931F93CF93DF937C0135
:1003A000CB018A0120913D02222389F0EB016B01F0
:1003B000C40ED51ECC15DD0569F06991D701ED910C
:1003C000FC910190F081E02DC7010995F3CF642FD6
:1003D0000E949201C801DF91CF911F910F91FF9070
:1003E000EF90DF90CF900895CF93DF931F92CDB71A
:1003F000DEB7698320913D022223F9F0209160024B
:10040000203258F021E030E0FC013383228390E079
:1004100080E00F90DF91CF91089580913E02E82F08
:10042000F0E0E15CFD4F998190838F5F80933E0205
:100430008093600281E090E0ECCF61E0CE01019614
:100440000E949201F7CFCF92DF92EF92FF920F932B
:100450001F93CF93DF93FC01C48121E020933D02E1
:10046000C0935F0210923E02109260028385682B57
:100470008AE692E00E94F401D0916002D13208F045
:1004800092C00E94FB006B017C01809137028111B8
:1004900065C082E08093370281E0809336028FEF5F
:1004A0008093350210923402D0933302AFE3B2E06E
:1004B000E3E1F2E080E0D81385C01092120280914F
:1004C0001202CC0FC82BC09312028091110281300E
:1004D00009F07CC0109211020E94FB006B017C01AC
:1004E000809112028093BB008091390290913A0270
:1004F000A0913B02B0913C02892B8A2B8B2B99F067
:100500000E94FB000091390210913A0220913B02B7
:1005100030913C026C197D098E099F090617170757
:1005200028073907E0F18091BC0083FDD9CF85EC25
:100530008093BC000E94FB006B017C01809137021C
:10054000823009F445C0809135028F3F61F180917E
:100550003502803241F18091350225C08091390207
:1005600090913A02A0913B02B0913C02892B8A2BD8
:100570008B2B09F48ACF0E94FB0000913902109165
:100580003A0220913B0230913C026C197D098E09A0
:100590009F09061717072807390708F076CF8091BB
:1005A00038020E94530110923E0210926002109293
:1005B0003D02DF91CF911F910F91FF90EF90DF905F
:1005C000CF9008959D9191938F5F75CF85EEB0CFB9
:1005D0008091390290913A02A0913B02B0913C0285
:1005E000892B8A2B8B2B09F4A9CF0E94FB00009149
:1005F000390210913A0220913B0230913C026C1971
:100600007D098E099F09061717072807390708F083
:1006100095CFC5CF90E080E00895FC0101900020C7
:10062000E9F73197AF01481B590BBC0186E792E00F
:100630000C9482000F931F93CF938C01C62F0E94BE
:1006400023026C2F6460C8010E9423026C2F6B7F11
:10065000C8010E94230283EC90E00197F1F7CF914B
:100660001F910F9108950F931F93CF93DF938C01E8
:10067000D62FC42F607F642B0E941A0380E1D89F7D
:10068000B00111246C2BC801DF91CF911F910F9104
:100690000C941A03CF93DF93CDB7DEB728970FB62C
:1006A000F894DEBF0FBECDBF98E0E0E0F1E0DE01E0
:1006B000119601900D929A95E1F790917E0298170C
:1006C00010F48FEF890F90E0880F991F21E030E040
:1006D0002C0F3D1F820F931FFC0160816F5F6068CC
:1006E00040E086E792E028960FB6F894DEBF0FBE92
:1006F000CDBFDF91CF910C94330341E00E943303CF
:1007000081E090E0089585ED8093BC0080913902EE
:1007100090913A02A0913B02B0913C020796A11D34
:10072000B11D23E0B695A795979587952A95D1F7A2
:100730002091BC0024FD03C010923702089540911F
:10074000390250913A0260913B0270913C02452B74
:10075000462B472B69F30097A105B10541F025E32E
:100760002A95F1F700000197A109B109E1CF809125
:1007700038020C9453011F920F920FB60F9211245E
:100780002F933F938F939F93AF93BF938091620278
:1007900090916302A0916402B09165023091610270
:1007A00023E0230F2D3758F50196A11DB11D20938D
:1007B00061028093620290936302A0936402B093FB
:1007C00065028091660290916702A0916802B091E3
:1007D00069020196A11DB11D809366029093670284
:1007E000A0936802B0936902BF91AF919F918F91DE
:1007F0003F912F910F900FBE0F901F90189526E8F4
:10080000230F0296A11DB11DD2CF1F920F920FB6DA
:100810000F9211242F933F934F935F936F937F9386
:100820008F939F93AF93BF93EF93FF938091B90002
:10083000887F803609F44AC0F0F5883209F4A5C0F3
:1008400018F5803109F499C0B8F4882309F4F5C08B
:10085000883009F492C0FF91EF91BF91AF919F91C1
:100860008F917F916F915F914F913F912F910F9059
:100870000FBE0F901F901895883109F486C0803202
:1008800051F78093350214C0803409F49BC040F4C2
:100890008033B9F38833F9F68093350285ECAEC026
:1008A000803509F483C0883509F494C0883499F6FA
:1008B0000E948303D0CF883909F48AC038F588377D
:1008C00029F050F4883611F0803729F683E08093C0
:1008D00037021092100255C0883809F479C0803967
:1008E00019F0803809F0B7CF80911002803208F0FB
:1008F0006FC0E091100281E08E0F80931002809112
:10090000BB00F0E0E051FE4F80833BC0803B39F0FC
:10091000D0F4803A09F477C0883A09F09CCF84E09B
:10092000809337021092EF011092EE01F0E0E0E0C8
:1009300009958091EE0181110FC081E08093EE0155
:100940001092CE0109C0803C09F4A8CF883C09F47C
:10095000A5CF883B09F07FCFE091EF0181E08E0FBA
:100960008093EF01F0E0E253FE4F80818093BB0063
:100970009091EF018091EE0129C080911202809345
:10098000BB0085EC8093BC0066CF909134028091CF
:100990003302981758F5E091340281E08E0F80936E
:1009A0003402F0E0ED5EFD4F8081E9CFE09134024A
:1009B00081E08E0F809334028091BB00F0E0ED5E09
:1009C000FD4F808390913402809133029817C8F2D2
:1009D00085E8D8CFE091340281E08E0F8093340215
:1009E0008091BB00F0E0ED5EFD4F80838091360288
:1009F00081115ECF81E08093110284EA8093BC0074
:100A00001092370228CF85EC8093BC0010923702F9
:100A100080911002803230F4E0911002F0E0E05159
:100A2000FE4F10826091100270E080EF91E0F0E0E4
:100A3000E0E00995109210020ECF1092350238CFE7
:100A4000EAE6F2E01382128288EE93E0A0E0B0E0E2
:100A500084839583A683B7838CE091E09183808320
:100A6000E6E7F2E0138212828EE191E091838083C7
:100A700080E2848384E1818784E0828713860895FD
:100A8000789484B5826084BD84B5816084BD85B569
:100A9000826085BD85B5816085BD80916E00816075
:100AA00080936E001092810080918100826080931B
:100AB000810080918100816080938100809180001D
:100AC0008160809380008091B10084608093B10048
:100AD0008091B00081608093B00080917A00846042
:100AE00080937A0080917A00826080937A0080916E
:100AF0007A00816080937A0080917A008068809388
:100B00007A001092C10080917B02886080937B0202
:100B100014E010937E0262E370E080E090E00E94B7
:100B200020016091810286E792E00E94230268EE34
:100B300073E080E090E00E94200160E386E792E0AD
:100B40000E941A03CBE4D6E4CE010197F1F760E3EB
:100B500086E792E00E941A032197F1F760E386E7A7
:100B600092E00E941A0383E592E00197F1F760E2B8
:100B700086E792E00E941A0360917B02606240E087
:100B800086E792E00E94330310937C0240E06CE021
:100B900086E792E00E94330340E061E086E792E05E
:100BA0000E943303CBE3DFE1CE010197F1F782E04E
:100BB00080937D0240E066E086E792E00E94330386
:100BC00040E062E086E792E00E9433032197F1F76C
:100BD00088E08093810260E086E792E00E94230231
:100BE00080E00E944A0386E291E00E940D0381E0CA
:100BF0000E944A0386E391E00E940D0382E00E9476
:100C00004A0384E491E00E940D0383E00E944A03BA
:100C100086E591E00E940D03CBE3DFE100E010E008
:100C200068EE73E080E090E00E94200140E061E027
:100C300086E792E00E943303CE010197F1F768EE58
:100C400073E080E090E00E94200180E00E944A036F
:100C50008BE691E00E940D0364EF71E080E090E08C
:100C60000E94200181E00E944A0382E791E00E94F5
:100C70000D0364EF71E080E090E00E94200182E0CB
:100C80000E944A0389E791E00E940D0364EF71E03E
:100C900080E090E00E94200183E00E944A0380E807
:100CA00091E00E940D0368EE73E080E090E00E9406
:100CB000200180E00E944A0387E891E00E940D0332
:100CC00081E00E944A0388E991E00E940D0382E0DE
:100CD0000E944A0389EA91E00E940D0383E00E948A
:100CE0004A038AEB91E00E940D0360ED77E080E01B
:100CF00090E00E9420010115110509F491CF0E9496
:100D000000008ECFEE0FFF1F0590F491E02D0994A7
:040D1000F894FFCF85
:100D1400000040001400540000000000F401C7016A
:100D24000A03B901C001BD01BA01000000007D033E
:100D340082000A0352016D6963726F636F6E74728D
:100D44006F6C65726500776F726470726573732E71
:100D5400636F6D004C434420323078342049324371
:100D64002054455354002E2E2E2E2E2E2E2E2E2E53
:100D74002E2E2E2E2E2E2E2E2E2E004C696E6520FB
:100D840031004C696E652032004C696E6520330079
:100D94004C696E652034004C696E652031205445E1
:100DA4005354204F4B2020004C696E652032205450
:100DB400455354204F4B2020004C696E652033204E
:100DC40054455354204F4B2020004C696E65203409
:0C0DD4002054455354204F4B20200000B9
:00000001FF
