:100000000C945D000C9485000C9485000C94850084
:100010000C9485000C9485000C9485000C9485004C
:100020000C9485000C9485000C9485000C9485003C
:100030000C9485000C9485000C9485000C9485002C
:100040000C9478020C9485000C9446020C942002C7
:100050000C9485000C9485000C9485000C9485000C
:100060000C9485000C94850000000008000201003B
:100070000003040700000000000000000000000072
:10008000250028002B0000000000240027002A0083
:10009000040404040404040402020202020203032E
:1000A0000303030301020408102040800102040836
:1000B0001020010204081020BD0311241FBECFEF41
:1000C000D8E0DEBFCDBF11E0A0E0B1E0E4EEF7E0A4
:1000D00002C005900D92A232B107D9F721E0A2E249
:1000E000B1E001C01D92A93CB207E1F710E0CDE5F7
:1000F000D0E004C02197FE010E94EA03CC35D1076D
:10010000C9F70E94C2020C94F0030C94000090E026
:10011000FC01EC55FF4F249180579F4FFC018491C7
:10012000882399F090E0880F991FFC01EA57FF4F50
:10013000A591B491FC01E458FF4F859194918FB73C
:10014000F894EC91E22BEC938FBF0895E2E7F0E096
:100150002491EEEAF0E09491EAE9F0E0E491EE23F4
:10016000C9F0222339F0233001F1A8F4213019F12C
:10017000223029F1F0E0EE0FFF1FE458FF4FA59168
:10018000B4912FB7F894EC91811126C090959E23DD
:100190009C932FBF08952730A9F02830C9F0243050
:1001A00049F7209180002F7D03C0209180002F7798
:1001B00020938000DFCF24B52F7724BDDBCF24B57B
:1001C0002F7DFBCF2091B0002F772093B000D2CFAE
:1001D0002091B0002F7DF9CF9E2BDACFAF92BF9246
:1001E000CF92DF92EF92FF920F931F93CF93DF9303
:1001F0006C017B018B01040F151FEB015E01AE1832
:10020000BF08C017D10759F06991D601ED91FC9153
:100210000190F081E02DC6010995892B79F7C50180
:10022000DF91CF911F910F91FF90EF90DF90CF90D2
:10023000BF90AF900895FC01538D448D252F30E081
:10024000842F90E0821B930B541710F0CF960895E3
:1002500001970895FC01918D828D981761F0A28D10
:10026000AE0FBF2FB11D5D968C91928D9F5F9F73D6
:10027000928F90E008958FEF9FEF0895FC01918D8C
:10028000828D981731F0828DE80FF11D858D90E0F9
:1002900008958FEF9FEF0895FC01918D228D892F96
:1002A00090E0805C9F4F821B91098F73992708957E
:1002B0008CE291E00E944C0121E0892B09F420E0BE
:1002C000822F089580E090E0892B29F00E94580148
:1002D00081110C9400000895FC01A48DA80FB92F82
:1002E000B11DA35ABF4F2C91848D90E001968F735E
:1002F0009927848FA689B7892C93A089B1898C917D
:10030000837080648C93938D848D981306C00288CB
:10031000F389E02D80818F7D80830895EF92FF9295
:100320000F931F93CF93DF93EC0181E0888F9B8D18
:100330008C8D98131AC0E889F989808185FF15C0D2
:100340009FB7F894EE89FF896083E889F9898081F5
:100350008370806480839FBF81E090E0DF91CF91C4
:100360001F910F91FF90EF900895F62E0B8D10E0E6
:100370000F5F1F4F0F731127E02E8C8D8E110CC055
:100380000FB607FCFACFE889F989808185FFF5CFA0
:10039000CE010E946C01F1CFEB8DEC0FFD2FF11D12
:1003A000E35AFF4FF0829FB7F8940B8FEA89FB89DD
:1003B00080818062CFCFCF93DF93EC01888D88233B
:1003C000B9F0AA89BB89E889F9898C9185FD03C0B8
:1003D000808186FD0DC00FB607FCF7CF8C9185FF9D
:1003E000F2CF808185FFEDCFCE010E946C01E9CF75
:1003F000DF91CF9108953FB7F894809127019091B4
:100400002801A0912901B0912A0126B5A89B05C019
:100410002F3F19F00196A11DB11D3FBFBA2FA92F83
:10042000982F8827BC01CD01620F711D811D911D80
:1004300042E0660F771F881F991F4A95D1F70895EC
:100440001F920F920FB60F9211242F933F934F9349
:100450005F936F937F938F939F93AF93BF93EF932C
:10046000FF938CE291E00E946C01FF91EF91BF91AC
:10047000AF919F918F917F916F915F914F913F913C
:100480002F910F900FBE0F901F9018951F920F92F3
:100490000FB60F9211242F938F939F93EF93FF9397
:1004A000E0913C01F0913D018081E0914201F091A9
:1004B000430182FD1BC09081809145018F5F8F7346
:1004C00020914601821741F0E0914501F0E0E45DA2
:1004D000FE4F958F80934501FF91EF919F918F91F2
:1004E0002F910F900FBE0F901F9018958081F4CF21
:1004F0001F920F920FB60F9211242F933F938F9359
:100500009F93AF93BF938091230190912401A09179
:100510002501B09126013091220123E0230F2D37D0
:1005200058F50196A11DB11D20932201809323014E
:1005300090932401A0932501B09326018091270177
:1005400090912801A0912901B0912A010196A11D45
:10055000B11D8093270190932801A0932901B093A6
:100560002A01BF91AF919F918F913F912F910F9051
:100570000FBE0F901F90189526E8230F0296A11D1D
:10058000B11DD2CF789484B5826084BD84B581607A
:1005900084BD85B5826085BD85B5816085BD80914E
:1005A0006E00816080936E001092810080918100C6
:1005B00082608093810080918100816080938100BE
:1005C000809180008160809380008091B100846080
:1005D0008093B1008091B00081608093B0008091E1
:1005E0007A00846080937A0080917A0082608093A0
:1005F0007A0080917A00816080937A0080917A00FD
:10060000806880937A001092C100E0913C01F091E3
:100610003D0182E08083E0913801F0913901108240
:10062000E0913A01F0913B0180E180831092440116
:10063000E0914001F091410186E08083E0913E012C
:10064000F0913F01808180618083E0913E01F091D3
:100650003F01808188608083E0913E01F0913F01FD
:10066000808180688083E0913E01F0913F0180812C
:100670008F7D808381E00E94A600CFB7F89480919F
:100680002B01811123C0EAE9F0E08491EEEAF0E069
:100690009491E82FF0E0EE0FFF1FEA57FF4FA5916E
:1006A000B491EC91E92319F481E00E94A6008AE05C
:1006B0000E9487008CB580618CBD8CB580648CBD38
:1006C0008DE00E9487008BE00E94870080912B01C3
:1006D0008F5F80932B01CFBF8CB58C7F81608CBDE9
:1006E0008DB581608DBDC0E0D0E080E00E94A600A5
:1006F00002E111E0F80161918F01662359F06EBDAE
:1007000000000DB407FEFDCF8EB58CE291E00E9493
:100710008E01F0CF81E00E94A6000E94FB014B01F8
:100720005C0180EDC82E87E0D82EE12CF12C0E94D0
:10073000FB01681979098A099B09683E73408105A4
:100740009105A8F3F1E0CF1AD108E108F10828EEED
:10075000820E23E0921EA11CB11CC114D104E1043D
:10076000F10429F7209709F4C0CF0E94580188238B
:1007700009F4BBCF0E940000B8CFECE2F1E0138295
:10078000128288EE93E0A0E0B0E084839583A68394
:10079000B78384E091E09183808385EC90E0958736
:1007A000848784EC90E09787868780EC90E0918B3B
:1007B000808B81EC90E0938B828B82EC90E0958B28
:1007C000848B86EC90E0978B868B118E128E138E25
:1007D000148E0895EE0FFF1F0590F491E02D0994FB
:0407E000F894FFCFBB
:1007E400000000008E01EE001B01DB014C012A0118
:1007F4003E0148656C6C6F2C20776F726C64210D20
:020804000000F2
:00000001FF
