:100000000C946A000C9492000C9492000C94920050
:100010000C9492000C9492000C9492000C94920018
:100020000C9492000C9492000C9492000C94920008
:100030000C9492000C9492000C9492000C949200F8
:100040000C948D110C9492000C945B110C9435114E
:100050000C9492000C9492000C9492000C949200D8
:100060000C9492000C9492007C3C3E5E2B3D3F2F02
:100070005B5D3B2C2A225C0000000000250028006C
:100080002B000000000023002600290000000008CB
:10009000000201000003040700000000000000004F
:1000A00000000000240027002A000102040810209C
:1000B00040800102040810200102040810200404FA
:1000C0000404040404040202020202020303030300
:1000D0000303D71111241FBECFEFD8E0DEBFCDBF81
:1000E00012E0A0E0B1E0EEEDFCE202C005900D925E
:1000F000A030B107D9F725E0A0E0B2E001C01D9221
:10010000AC31B207E1F710E0CAE6D0E004C02197B5
:10011000FE010E941715C936D107C9F70E942E1299
:100120000C946D160C940000CF93DF93FC01828138
:100130009381909300058093FF0484819581A6812B
:10014000B7818093010590930205A0930305B093B6
:10015000040580859185A285B385809305059093DC
:100160000605A0930705B0930805DF011C96CF0193
:100170004996C9E0D5E02D912993A817B907D9F779
:10018000818D928D90931705809316058DEF94E0E5
:10019000DF91CF910895AF92BF92CF92DF92EF920D
:1001A000FF920F931F93CF93DF936C017B018B0121
:1001B000040F151FEB015E01AE18BF08C017D10771
:1001C00059F06991D601ED91FC910190F081E02DFB
:1001D000C6010995892B79F7C501DF91CF911F9150
:1001E0000F91FF90EF90DF90CF90BF90AF90089568
:1001F000FC01538D448D252F30E0842F90E0821B2D
:10020000930B541710F0CF96089501970895FC01B1
:10021000918D828D981761F0A28DAE0FBF2FB11D09
:100220005D968C91928D9F5F9F73928F90E0089561
:100230008FEF9FEF0895FC01918D828D981731F01B
:10024000828DE80FF11D858D90E008958FEF9FEF6F
:100250000895FC01918D228D892F90E0805C9F4F45
:10026000821B91098F739927089585E194E00E947C
:10027000290121E0892B09F420E0822F089580E0F4
:1002800090E0892B29F00E94350181110C94000027
:100290000895FC01A48DA80FB92FB11DA35ABF4F1B
:1002A0002C91848D90E001968F739927848FA68975
:1002B000B7892C93A089B1898C91837080648C93C9
:1002C000938D848D981306C00288F389E02D808178
:1002D0008F7D80830895EF92FF920F931F93CF93AA
:1002E000DF93EC0181E0888F9B8D8C8D98131AC071
:1002F000E889F989808185FF15C09FB7F894EE8958
:10030000FF896083E889F9898081837080648083B4
:100310009FBF81E090E0DF91CF911F910F91FF90FF
:10032000EF900895F62E0B8D10E00F5F1F4F0F73A7
:100330001127E02E8C8D8E110CC00FB607FCFACF62
:10034000E889F989808185FFF5CFCE010E944901B6
:10035000F1CFEB8DEC0FFD2FF11DE35AFF4FF08233
:100360009FB7F8940B8FEA89FB8980818062CFCF99
:10037000CF93DF93EC01888D8823B9F0AA89BB89DC
:10038000E889F9898C9185FD03C0808186FD0DC0C7
:100390000FB607FCF7CF8C9185FFF2CF808185FFE8
:1003A000EDCFCE010E944901E9CFDF91CF910895B1
:1003B000833081F028F4813099F08230A9F00895DB
:1003C0008730A9F08830C9F08430B1F48091800082
:1003D0008F7D03C0809180008F7780938000089587
:1003E00084B58F7784BD089584B58F7DFBCF8091D0
:1003F000B0008F778093B00008958091B0008F7D1A
:10040000F9CFCF93DF93282F30E0F901E457FF4F66
:100410008491F901E655FF4FD491F901E254FF4F61
:10042000C491CC23A1F081110E94D801EC2FF0E0FF
:10043000EE0FFF1FEE57FF4FA591B491EC91ED2306
:1004400081E090E009F480E0DF91CF91089580E0B1
:1004500090E0FACF1F93CF93DF93282F30E0F9017C
:10046000E457FF4F8491F901E655FF4FD491F9010C
:10047000E254FF4FC491CC23A9F0162F81110E94A2
:10048000D801EC2FF0E0EE0FFF1FE858FF4FA591C9
:10049000B4918FB7F894EC91111108C0D095DE2378
:1004A000DC938FBFDF91CF911F910895DE2BF8CFA2
:1004B000CF93DF9390E0FC01E655FF4F24918254E7
:1004C0009F4FFC0184918823D1F090E0880F991F01
:1004D000FC01E056FF4FA591B491FC01E858FF4F95
:1004E000C591D491623071F49FB7F8943C91822FFA
:1004F000809583238C93E8812E2B28839FBFDF91E7
:10050000CF9108958FB7F894EC912E2B2C938FBF39
:10051000F6CF3FB7F89480910C0290910D02A09114
:100520000E02B0910F0226B5A89B05C02F3F19F00F
:100530000196A11DB11D3FBFBA2FA92F982F882763
:10054000BC01CD01620F711D811D911D42E0660F3E
:10055000771F881F991F4A95D1F708958F929F9210
:10056000AF92BF92CF92DF92EF92FF924B015C016C
:100570000E9489026B017C010E9489026C197D092D
:100580008E099F09683E734081059105A8F321E01B
:10059000821A9108A108B10888EEC80E83E0D81E1F
:1005A000E11CF11C81149104A104B10429F7FF900E
:1005B000EF90DF90CF90BF90AF909F908F90089575
:1005C0002FB7F894609108027091090280910A0295
:1005D00090910B022FBF08958FB7F894809101027C
:1005E0008FBF089561E0FC0184810E942A028091FE
:1005F000000281111092000208958EBD00000DB41A
:1006000007FEFDCF8EB508958FEF0C94FD020F937A
:100610001F93CF93DF93EC010E94E0028B010E94B5
:1006200004038F3F69F00E94E002601B710B6C179E
:100630007D07A8F380E0DF91CF911F910F9108957E
:1006400081E0F9CF8CBD9DBD0895CF93DF93EC0180
:1006500080910002811109C081E0809300028091A5
:10066000B2049091B3040E94220360E08C81DF9178
:10067000CF910C942A028F929F92AF92BF92FF92D9
:100680000F931F93CF93DF93EC01F62E49015A018C
:100690008E81882389F08F8198859C012F5F3F4F41
:1006A00038872F838230924018F40E940403F3CFDE
:1006B000CE010E94F2021E82CE010E9425038CE22E
:1006C00091E00E9407038F2D80640E94FD0208E1E3
:1006D00010E0D501C401002E04C0B695A7959795EA
:1006E00087950A94D2F70E94FD0208501109083F2D
:1006F0008FEF180771F785E9FF2021F028E087E8E0
:10070000F2128FEF0E94FD0210E00E9404038A871C
:1007100087FF04C01F3F11F01F5FF7CFDF91CF911C
:100720001F910F91FF90BF90AF909F908F90089571
:10073000AF92BF92CF92DF92EF92FF920F931F93EF
:10074000CF93DF93EC016901C801820F931F8130C1
:10075000924050F58E81882379F088819981AA8111
:10076000BB8184179507A607B70731F48F81988559
:10077000C816D90608F042C0488359836A837B8330
:100780008B85833039F089E0440F551F661F771F32
:100790008A95D1F79A01AB0161E1CE010E943B033A
:1007A000882389F083E08D83CE010E94F20280E0ED
:1007B000DF91CF911F910F91FF90EF90DF90CF903D
:1007C000BF90AF9008950E94E0025B010E94040375
:1007D0008A878F3F69F40E94E0026A197B096D32B3
:1007E0007140A0F38FE08D83CE010E94F202DCCF36
:1007F0008E3F89F418861F8281E08E838F819885D1
:100800008C159D0550F40E9404038F8198850196F4
:1008100098878F83F3CF8DE0E6CF6701E00EF11E5E
:100820000E940403F60181936F01EE15FF05C1F7E5
:100830008F819885080F191F18870F838985882352
:1008400019F001151240A0F08E81882389F08F8164
:1008500098859C012F5F3F4F38872F8382309240CD
:1008600018F40E940403F3CFCE010E94F2021E820C
:1008700081E09ECFCF92DF92EF92FF920F93CF93C2
:10088000DF93EC01690182E14115510561057105B4
:1008900099F08B85833039F089E0440F551F661F2E
:1008A000771F8A95D1F79A01AB0168E1CE010E94CA
:1008B0003B03882319F084E08D832DC08EEF0E94C6
:1008C000FD0276018EEFD81AF70181917F010E9417
:1008D000FD02EC14FD04C1F78FEF0E94FD028FEFC3
:1008E0000E94FD020E9404038A878F71853071F493
:1008F000011116C0CE010E94F20281E0DF91CF917A
:100900000F91FF90EF90DF90CF90089581E18D835C
:10091000CE010E94F202CE010E94F20280E0EECFF0
:1009200088E592E00E940703811102C085E1C4CFEF
:1009300020E030E0A9016DE0CE010E943B03882356
:1009400011F084E1B9CF0E9404038111FACFD2CF14
:100950000F9340910302509104026091050270913F
:100960000602411551056105710599F0082F23E133
:1009700032E080911304909114040E943A04882379
:1009800049F0109203021092040210920502109294
:10099000060281E00F9108950F93CF93C82F8091A5
:1009A0000202811105C0C1E08C2FCF910F910895F3
:1009B0004091000150910101609102017091030189
:1009C0000C2F23E132E080911304909114040E94D3
:1009D0003A04811102C0C0E0E7CFCC2321F381E0CB
:1009E0000E94A8048823B9F310920202DDCF8F92EF
:1009F0009F92AF92BF92EF92FF920F931F93CF936C
:100A00004B015C01C42F8091000190910101A091E4
:100A10000201B091030188159905AA05BB0551F1A2
:100A200081E00E94CC0481110BC080E0CF911F9126
:100A30000F91FF90EF90BF90AF909F908F9008958F
:100A400083E1E82E82E0F82E00E012E030E020E0C2
:100A5000B501A40180911304909114040E9498039D
:100A6000882319F38092000190920101A092020163
:100A7000B0920301409102024C2B4093020281E0AC
:100A8000D5CF8F929F92AF92BF92CF92DF92EF928B
:100A9000FF92CF9324EB34E030931404209313049B
:100AA000882309F46DC040E060E070E0CB010E9453
:100AB000F70481110BC080E0CF91FF90EF90DF90A1
:100AC000CF90BF90AF909F908F9008958091D10369
:100AD0008F7789F78091DD039091DE03A091DF038A
:100AE000B091E00384369105A105B10520F3C090D3
:100AF000D903D090DA03E090DB03F090DC03C1145B
:100B0000D104E104F104B9F240E0C701B6010E944A
:100B1000F704882381F280911E0290911F028115B3
:100B2000924049F6A0912302AA2329F26091210262
:100B3000709122026115710509F4BDCF2091200248
:100B4000222309F4B8CFA093D2042093C40490E0E8
:100B500080E030E0E1E0F0E0C82FAF01082E02C0F5
:100B6000440F551F0A94E2F72417350769F041E056
:100B7000480F01968930910579F74093CD049BCFBA
:100B8000C12CD12C7601C0CF8093CD0420912902B5
:100B900030912A0250E040E02115310541F42091C6
:100BA0003702309138024091390250913A02209335
:100BB000C5043093C6044093C7045093C80446014B
:100BC0005701860E971EA11CB11C8092D3049092EF
:100BD000D404A092D504B092D604E0912402F091FE
:100BE0002502F093D904E093D804B0E00E940C15DC
:100BF000DC01CB01880D991DAA1DBB1D8093DA0471
:100C00009093DB04A093DC04B093DD0425E0EE0FA9
:100C1000FF1F2A95E1F7E150FE4FEF2FFF27E695E2
:100C20008E0F9F1FA11DB11D8093CE049093CF0402
:100C3000A093D004B093D104809026029090270214
:100C4000B12CA12C8114910441F480903302909036
:100C50003402A0903502B0903602C81AD90AEA0AC6
:100C6000FB0AC80CD91CEA1CFB1C04C0F694E794D0
:100C7000D794C794CA95D2F7C092C904D092CA0437
:100C8000E092CB04F092CC0485EFC8168FE0D80632
:100C9000E104F10428F48CE08093D70481E00CCFC8
:100CA00080E125EFC2162FEFD206E104F104A0F394
:100CB00080913F0290914002A0914102B091420286
:100CC0008093DA049093DB04A093DC04B093DD04FA
:100CD00080E2E2CF4F925F926F927F928F929F92CB
:100CE000AF92BF92CF92DF92EF92FF920F931F933A
:100CF000CF93DF93EC01423051056105710590F40B
:100D000080E0DF91CF911F910F91FF90EF90DF90E6
:100D1000CF90BF90AF909F908F907F906F905F909B
:100D20004F90089589859A85AB85BC850196A11D54
:100D3000B11D84179507A607B70710F3CB88DC8889
:100D4000ED88FE888F89803109F042C0BB27A72F2C
:100D5000962F852F480159012A013B01C80ED91E43
:100D6000EA1EFB1E8091000190910101A0910201F9
:100D7000B0910301C816D906EA06FB0699F58F89DA
:100D80008031C1F5B301A201552766277727440FAB
:100D9000551F4D5E5D4FFA01918280828091020263
:100DA0008160809302028A89823080F08D819E81E9
:100DB000AF81B8858C0D9D1DAE1DBF1D80930302B4
:100DC00090930402A0930502B093060281E099CFAC
:100DD000DB01CA01E7E0B695A79597958795EA9557
:100DE000D1F7B8CF40E0C701B6010E94F7048111E6
:100DF000C6CF86CFB301A2014F7755276627772745
:100E0000440F551F440F551F4D5E5D4FFA01808200
:100E10009182A282B382C2CF8F929F92AF92BF92F1
:100E2000CF92DF92EF92FF920F931F93CF93DF93B6
:100E3000FC0181859285A385B4850196A11DB11D14
:100E400084179507A607B70770F480E0DF91CF916C
:100E50001F910F91FF90EF90DF90CF90BF90AF90D8
:100E60009F908F90089583889488A588B6888789F5
:100E7000803189F5BB27A72F962F852FE9016A01BD
:100E80007B018F01BC01CD01680D791D8A1D9B1D61
:100E90008090000190900101A0900201B0900301A8
:100EA00086169706A806B90601F5F80187898031EC
:100EB00011F5DD24EE24FF24F601EE0FFF1FED5E99
:100EC000FD4F80819181B0E0A0E088839983AA835F
:100ED000BB8381E0BBCFDB01CA01C7E0B695A79514
:100EE00097958795CA95D1F7C9CF40E00E94F7043E
:100EF0008111DBCFAACFE894C7F8DD24EE24FF24CC
:100F0000F601EE0FFF1FEE0FFF1FED5EFD4F80811C
:100F10009181A281B381BF70D8CF4F925F926F92BF
:100F20007F92AF92BF92CF92DF92EF92FF920F9398
:100F30001F93CF93DF9300D000D0CDB7DEB78C01E5
:100F400049835A836B837C835901C12CD12C760150
:100F5000412C82E0582E612C712C49815A816B8181
:100F60007C819E012F5F3F4FC8010E940C078823A0
:100F700039F1F8018585A301920104C0220F331FC6
:100F8000441F551F8A95D2F7DA01C901C80ED91E30
:100F9000EA1EFB1E49815A816B817C8187898031E1
:100FA00011F188EF9FEFAFEFBFE0481759076A07CD
:100FB0007B0798F2F501C082D182E282F38281E060
:100FC0000F900F900F900F90DF91CF911F910F9185
:100FD000FF90EF90DF90CF90BF90AF907F906F9099
:100FE0005F904F90089588EF9FEFA0E0B0E0DDCFD5
:100FF000CF93DF93FC012581222321F080E0DF9154
:10100000CF910895EC018091D704803159F582E0A9
:101010008583178A108E118E128E8091D80490913C
:10102000D904B0E0A0E025E0880F991FAA1FBB1FDC
:101030002A95D1F7838B948BA58BB68B80EC94E0AB
:101040009C8F8B8F81E08C831E821F82188619866D
:101050001A861B861C861D861E861F86188A198A7C
:101060001A8ACDCF803251F683E085834091DA042D
:101070005091DB046091DC047091DD04478B508F4C
:10108000618F728F9F012D5E3F4F80EC94E00E9434
:101090008D078111D3CFB2CF8F929F92AF92BF9223
:1010A000CF92DF92EF92FF920F931F93CF93DF9334
:1010B000EC018D8181110EC080E0DF91CF911F91F5
:1010C0000F91FF90EF90DF90CF90BF90AF909F90E7
:1010D0008F9008950B891C892D893E890417150767
:1010E0002607370748F34A015B01823031F48A86CC
:1010F0009B86AC86BD8681E0E0CF81149104A1047B
:10110000B10449F41E821F82188619861A861B862E
:101110001C861D86F0CF0A851B852C853D85EB8DB1
:10112000FC8D858590E00996B901A80141505109CF
:1011300061097109082E04C0769567955795479502
:101140000A94D2F775016401E1E0CE1AD108E108F2
:10115000F10804C0F694E794D794C7948A95D2F71F
:10116000C416D506E606F70620F0012B022B032B4A
:1011700011F58F89988DA98DBA8D8E839F83A8874D
:10118000B9878E010A5F1F4FC114D104E104F10435
:1011900009F4ADCF4E815F816885798598018B8D8B
:1011A0009C8D0E940C0791E0C91AD108E108F10852
:1011B0008111EACF81CFC41AD50AE60AF70AE1CF36
:1011C0003F924F925F926F927F928F929F92AF92D7
:1011D000BF92CF92DF92EF92FF920F931F93CF9324
:1011E000DF93CDB7DEB72C970FB6F894DEBF0FBEF6
:1011F000CDBF5C01DC015B968D909C905C97169650
:101200004D905D906D907C9019974114510461044C
:10121000710409F468C0BFEF4B1A5B0A6B0A7B0AC2
:10122000312CF40181859285A385B4859C01AD01A3
:101230002F5F3F4F4F4F5F4F29873A874B875C8720
:10124000730162011D821E821F821886F40181854E
:101250009285A385B4852D813E814F8158852817BD
:1012600039074A075B0708F056C089859A85AB8520
:10127000BC858C159D05AE05BF0550F482E0C82ED7
:10128000D12CE12CF12C92E0492E512C612C712CA7
:101290009E012F5F3F4FB701A601C4010E940C07BA
:1012A0008823C9F189819A81AB81BC81892B8A2BE2
:1012B0008B2B09F1260137019FEF491A590A690A58
:1012C000790A2D813E814F8158852F5F3F4F4F4FC7
:1012D0005F4F2D833E834F8358873FEFC31AD30A56
:1012E000E30AF30AB3CFF401408051806280738037
:1012F0003324339496CFC414D504E604F70409F7D5
:101300000FEF1FEF2FEF3FE0B701A601C4010E94CE
:101310006A06811119C080E02C960FB6F894DEBFE2
:101320000FBECDBFDF91CF911F910F91FF90EF9036
:10133000DF90CF90BF90AF909F908F907F906F90F5
:101340005F904F903F900895D50116964D915D9115
:101350006D917C911997411551056105710539F021
:1013600097018601C4010E946A068823A1F2D50173
:101370001696CD92DD92ED92FC921997332051F0A2
:10138000D701C6010196A11DB11DF401808391838F
:10139000A283B383F5018789908DA18DB28D892BAE
:1013A0008A2B8B2B39F48481C78AD08EE18EF28E02
:1013B00080688483F50184818062848381E0ACCF7E
:1013C0001F93CF93DF93FC0125812223D1F1162FA8
:1013D000EC01848187FF2AC06685778580899189A1
:1013E00041E00E94F704882361F1EA8980E2E89FE6
:1013F000F0011124ED5EFD4F309719F18D8182309F
:1014000040F48B899C89AD89BE89848F958FA68F86
:10141000B78F8F89988D938F828F8F89988DA98DA3
:10142000BA8DB58BA48B8C818F778C83111103C0FF
:101430008C818F7E8C83812FDF91CF911F910C94B3
:10144000CC0480E0DF91CF911F910895FF920F931C
:101450001F93CF93DF93EC018D81813041F090E0B9
:1014600080E0DF91CF911F910F91FF9008958C81C3
:1014700081FFF5CF82FD1BC000911304109114046D
:10148000C8010E9425030E940403F82EC8010E948F
:10149000F2028FEFF812E3CF8C8185FF1BC060E072
:1014A000CE010E94E0098C818F7D8C83D8CF4B893F
:1014B0005C896D897E898A859B85AC85BD8584170D
:1014C0009507A607B707C1F2CE010E944C0881110B
:1014D000D3CFC5CF40910302509104026091050221
:1014E00070910602452B462B472B21F080E00E948D
:1014F000A804B5CF80618C832A853B85317080E05C
:1015000092E0821B930BADCFCF93DF93EC0161E0B0
:101510000E94E009882311F01D8281E0DF91CF91C4
:1015200008952F923F924F925F926F927F928F9287
:101530009F92AF92BF92CF92DF92EF92FF920F9362
:101540001F93CF93DF9300D000D01F92CDB7DEB7AB
:101550007C015B01342E5D83DC0115968C9115971F
:10156000813009F0CEC014962C9021FECAC022FC16
:10157000B4C0C32CDD8022947FE027222094B22DBA
:10158000B1702B2ED7011A964D915D916D917C9182
:101590001D97C114D10409F428C15B968D919C91CB
:1015A0005C97FC0174807A948A019B0169E036950E
:1015B0002795179507956A95D1F770228A011170C2
:1015C000711020C001151105E9F416964D915D9139
:1015D0006D917C911997411551056105710509F0CF
:1015E00099C057968D919D910D90BC91A02D00971B
:1015F000A105B10509F0B0C0C7010E94E008882329
:1016000009F47FC080E092E0801B910B46018C15AD
:101610009D0508F44C01D7015B964D915C915C9758
:1016200016968D919D910D90BC91A02D0297A109C8
:10163000B109FA01258504C0880F991FAA1FBB1F95
:101640002A95D2F74685578560897189840F951F41
:10165000A61FB71F9C01AD01270D311D411D511D56
:1016600029013A01811432E0930609F07BC0809190
:10167000000190910101A0910201B0910301841534
:101680009505A605B70559F48FEF9FEFDC01809310
:10169000000190930101A0930201B0930301022D78
:1016A0009501B301A20180911304909114040E944A
:1016B0003A04882331F19EEFB91AC818D908F70106
:1016C00082859385A485B585880D991DA11DB11DC1
:1016D00082879387A487B58755CFF70143895489BB
:1016E0006589768982859385A485B58548175907CC
:1016F0006A077B0709F43DCFC7010E944C0881119E
:1017000038CF81E090E0D70113969C938E93129787
:1017100080E007C09E012F5F3F4F0E940C078111A0
:1017200002C090E079C089819A81AB81BC81F701C8
:10173000238D348DF901278948EF5FEF60E070E079
:10174000203121F048EF5FEF6FEF7FE084179507BE
:10175000A607B70708F050CFF70186839783A087C5
:10176000B18750CF0115110599F5D7011A964D9102
:101770005D916D917C911D9753968D919D910D90EA
:10178000BC91A02D481759076A077B0708F181E033
:101790000E94CC04882309F4B4CF409200015092F7
:1017A0000101609202017092030180910202816046
:1017B00080930202C8018D5E9D4FD5019C01280DCA
:1017C000391DFC012E173F0759F04D914193FACF77
:1017D00041E0C301B2010E94F7048111EBCF91CF28
:1017E000281B390BA20EB31E68CFF7018389948999
:1017F000A589B68984179507A607B70738F48481A9
:10180000438B548B658B768B80688483F70184814E
:1018100083FD1AC0832D9D810F900F900F900F9024
:101820000F90DF91CF911F910F91FF90EF90DF907C
:10183000CF90BF90AF909F908F907F906F905F9070
:101840004F903F902F90089561E0C7010E94E009FA
:10185000882309F456CFDECFCF93DF931F92CDB705
:10186000DEB7698341E050E0BE016F5F7F4F0E94A9
:10187000910A0F90DF91CF910895FC01DB01129640
:101880008D919C9113979383828380E291E0918361
:10189000808314968C911497848315968C91159758
:1018A000858316964D915D916D917C911997468334
:1018B0005783608771871A964D915D916D917C91E8
:1018C0001D9742875387648775871E964D915D915A
:1018D0006D917C91519746875787608B718B52969B
:1018E0008C915297828B53964D915D916D917C9125
:1018F0005697438B548B658B768B57964D915D91A4
:101900006D917C915A97478B508F618F728F5B9648
:101910008D919C91948F838F08950895FC01818D02
:10192000928D009719F061E00C94E0090895DC01B4
:101930005996ED91FC913097B9F083899489A589E6
:10194000B6894285538564857585841B950BA60BE6
:10195000B70B811520E89207A105B10538F08FEF8C
:101960009FE7A0E0B0E0089590E080E00895DC01FA
:1019700059968D919C91009739F0DC01ED91FC9185
:101980000480F581E02D099490E080E00895CF93E4
:10199000DF93EC01E98DFA8D309749F481E090E016
:1019A0009B838A8390E080E0DF91CF91089513823A
:1019B0001282898D9A8D0E94910AE98DFA8D228179
:1019C0003381232B59F7F0CFCF93DF931F92CDB7FD
:1019D000DEB76983DC01ED91FC910280F381E02D9B
:1019E00041E050E0BE016F5F7F4F09950F90DF919E
:1019F000CF9108952F923F924F925F926F927F9274
:101A00008F929F92AF92BF92CF92DF92EF92FF920E
:101A10000F931F93CF93DF9300D01F92CDB7DEB704
:101A2000FC018581811118C08FEF9FEF0F900F90FF
:101A30000F90DF91CF911F910F91FF90EF90DF906A
:101A4000CF90BF90AF909F908F907F906F905F905E
:101A50004F903F902F900895848180FFE5CF438978
:101A600054896589768982859385A485B585312CCD
:101A7000212C481759076A077B0719F02224239461
:101A8000312C6F012101CE0101963C01DF01169638
:101A9000BB83AA834114510409F4C5C0F6014285F1
:101AA0005385648575854A01F1E09F22D6015B96D6
:101AB0008D919C915C978A019B01E9E03695279571
:101AC00017950795EA95D1F71596EC91E230E9F56F
:101AD000FC01628D738D848D958D600F711F821F47
:101AE000931FA12C22E0B22EA818B9084A145B0457
:101AF00008F45201F601248126FD04C0A114F2E08D
:101B0000BF0671F4009100011091010120910201C2
:101B100030910301061717072807390709F05EC03F
:101B200040E00E94F704882309F47ECFC4018D5E53
:101B30009D4FD3019C012A0D3B1DFC012E173F0731
:101B400009F46CC041914D93F9CFDC011496BC901F
:101B5000BA94B0228114910479F4B1100DC0452BD0
:101B6000462B472B69F5F6018789908DA18DB28DA3
:101B700086839783A087B187D6015B96ED91FC9110
:101B80005C9716966D917D918D919C9119976250FD
:101B9000710981099109258504C0660F771F881F87
:101BA000991F2A95D2F70685178520893189600FFC
:101BB000711F821F931F6B0D711D811D911D91CF90
:101BC000D60116964D915D916D917C9119972A8160
:101BD0003B810E940C078111CFCF26CF7301850175
:101BE0009401AB01BC0180911304909114040E94F4
:101BF0009803882309F418CF6A0C7B1CF6018285B0
:101C00009385A485B5858A0D9B1DA11DB11D828775
:101C10009387A487B5874A185B083CCF281B390BEC
:101C2000620E731EEBCF2A94232809F0FDCE898122
:101C300090E0FCCEFC01818D928D009711F00C9408
:101C4000FA0C8FEF9FEF08950F931F93CF93DF93BD
:101C5000EC01898D9A8D10E000E0009799F00E94C8
:101C6000FA0C8C010F3F100769F0898D9A8DFC01E9
:101C70004285538564857585415051096109710913
:101C80000E944C08C801DF91CF911F910F910895D8
:101C9000CF92DF92EF92FF921F93CF93DF93EC01ED
:101CA00080E2689FF0011124ED5EFD4F93859171F4
:101CB00061F0842F827449F080E0DF91CF911F9111
:101CC000FF90EF90DF90CF900895142F6A8B809152
:101CD000000190910101A0910201B09103018E8752
:101CE0009F87A88BB98BC488D588F12CE12C76010D
:101CF000DD24CC24CF8AD88EE98EFA8E828D938D06
:101D0000B0E0A0E0AC01BD014C295D296E297F291E
:101D10004F8B588F698F7A8F83858871B1F4848D4A
:101D2000958DA68DB78D8B8B9C8BAD8BBE8B81E0FB
:101D30008D831F701C831E821F82188619861A8647
:101D40001B861C861D8681E0B8CF803109F0B4CF98
:101D50009E012D5E3F4F8B8D9C8D0E948D078823A9
:101D600009F4AACF84E0E4CFFB0101900020E9F759
:101D70003197AF01461B570BDC01ED91FC910280BE
:101D8000F381E02D0994CF93DF93BC0185E194E0CA
:101D90000E94B40EEC016AE371E085E194E00E94D8
:101DA000B40E8C0F9D1FDF91CF9108953F924F92FB
:101DB0005F926F927F928F929F92AF92BF92CF92DB
:101DC000DF92EF92FF920F931F93CF93DF93CDB7E4
:101DD000DEB72B970FB6F894DEBF0FBECDBF7C01E8
:101DE000FE013196CE010C966F0130E23193E81777
:101DF000F907E1F7DA0130E087E09D91B92E9923E8
:101E000009F43CC09E32F1F48A30C9F480E02B968C
:101E10000FB6F894DEBF0FBECDBFDF91CF911F91FB
:101E20000F91FF90EF90DF90CF90BF90AF909F9079
:101E30008F907F906F905F904F903F90089538E023
:101E40008AE0DBCFE8E6F0E04491442321F03196CC
:101E50009413FACFDBCF8317C8F24FED490F4E35FD
:101E6000A8F64FE9490F4A3118F440EEB42EB90EE6
:101E7000F601E30FF11DB0823F5FBFCF8981803251
:101E800029F2322E8B01DB015B968D919C915C9740
:101E9000F701948F838F16961D921D921D921C92AE
:101EA0001997FB011286138614861586F801828520
:101EB0009385A485B5854389548965897689841776
:101EC0009507A607B70708F04DC025E0B695A7957A
:101ED000979587952A95D1F7F82FFF70AF2ED801E7
:101EE00015968C91823008F491CFC8010E94FA0CAB
:101EF00097FD8CCFF80182859385A485B5854F9693
:101F0000A11DB11D82879387A487B587F0E2AF9E9C
:101F1000B00111246D5E7D4F6115710509F476CF16
:101F2000DB018C91882341F0853E09F062C0BB2023
:101F300029F0BB24B394BACFB1100EC0F701A28A26
:101F40008091000190910101A0910201B0910301E3
:101F500086879787A08BB18BDB018C918111E9CFAC
:101F6000BB24B394832D8271823109F04FCFBB2003
:101F700009F44DC0F701668577858089918941E034
:101F80000E94F704882309F441CFD70152968C911F
:101F9000B0E28B9FC00111248D5E9D4F009709F424
:101FA00035CFFC013A9626E1DF011D922A95E9F72B
:101FB0002BE0F601DC0101900D922A95E1F721E278
:101FC00038E2FC01318B208B40E058E05787468790
:101FD000338B228B318F208F578B468B81E00E9471
:101FE000CC04882309F412CF432DD70152966C916B
:101FF0000AC04BE050E0C6010E945116892B09F03F
:1020000055CF432D6A2DC7010E94480E00CFF8011D
:102010008581823009F4FACEC8010E94E008882345
:1020200009F4F4CED8015B96ED91FC915C9716967D
:102030008D909D90AD90BC901997B2E08B1A91084D
:10204000A108B108858504C0880C991CAA1CBB1C7A
:102050008A95D2F786859785A089B189880E991EC1
:10206000AA1EBB1E848124013501480E511C611C2F
:10207000711C84149504A604B70409F1E1E04E1A1A
:1020800051086108710881E00E94CC04882309F49A
:10209000BDCEE3E1F2E0119283E194E08E179F0759
:1020A000D1F74092000150920101609202017092BA
:1020B000030180910202816080930202DACFD8018D
:1020C0005B96ED91FC91258580E092E0A0E0B0E088
:1020D00004C0880F991FAA1FBB1F2A95D2F7F801C9
:1020E0004389548965897689840F951FA61FB71F78
:1020F000838B948BA58BB68BD70152961C9283E170
:1021000092E04FCFEF92FF920F931F93CF93DF9305
:10211000EC017B018A011B821A8288EE93E0A0E029
:10212000B0E08C839D83AE83BF838CE291E0998382
:1021300088838DE190E00E942C159A8F898F0097FB
:1021400079F02DE1F701DC0101900D922A95E1F77C
:102150004CE050E0B801CE010C960E945E16188E3D
:10216000DF91CF911F910F91FF90EF900895CF9243
:10217000DF92FF920F931F93CF93DF93CDB7DEB71C
:10218000C755D1090FB6F894DEBF0FBECDBF8C0185
:10219000F62E1C821B8280E2C82E81E0D82EDA82C5
:1021A000C9821E82CE0101960E94F807BE016F5FB0
:1021B0007F4FCE01CB960E943D0C19A218A2DF8E54
:1021C000CE8E1BA221968FAD2197811122C0F801DE
:1021D0001382128288EE93E0A0E0B0E084839583BE
:1021E000A683B7838CE291E091838083128E118E57
:1021F0001486C801C95ADF4F0FB6F894DEBF0FBE70
:10220000CDBFDF91CF911F910F91FF90DF90CF90C5
:1022100008952F2D49EB51E0BE01655C7F4FCE0143
:102220004E960E94D60E882391F2CE01CB960E9444
:10223000840A8F2D8670863041F449A95AA96BA96A
:102240007CA9CE014E960E944C08BE01625E7F4F73
:10225000CE0101960E943D0C49EB51E0BE016F5F3B
:102260007F4FC8010E948210C4CF1F920F920FB6F9
:102270000F9211242F933F934F935F936F937F930C
:102280008F939F93AF93BF93EF93FF9385E194E078
:102290000E944901FF91EF91BF91AF919F918F9162
:1022A0007F916F915F914F913F912F910F900FBE52
:1022B0000F901F9018951F920F920FB60F92112436
:1022C0002F938F939F93EF93FF93E0912504F091C9
:1022D00026048081E0912B04F0912C0482FD1BC028
:1022E000908180912E048F5F8F7320912F0482172D
:1022F00041F0E0912E04F0E0EB5EFB4F958F809370
:102300002E04FF91EF919F918F912F910F900FBE0F
:102310000F901F9018958081F4CF1F920F920FB6E7
:102320000F9211242F933F938F939F93AF93BF935B
:102330008091080290910902A0910A02B0910B02CB
:102340003091070223E0230F2D3758F50196A11D88
:10235000B11D209307028093080290930902A09375
:102360000A02B0930B0280910C0290910D02A09191
:102370000E02B0910F020196A11DB11D80930C02B7
:1023800090930D02A0930E02B0930F02BF91AF91F4
:102390009F918F913F912F910F900FBE0F901F90A3
:1023A000189526E8230F0296A11DB11DD2CFE5E1B5
:1023B000F4E01382128288EE93E0A0E0B0E0848320
:1023C0009583A683B7832EE031E03183208325EC0B
:1023D00030E03587248724EC30E03787268720ECEF
:1023E00030E0318B208B21EC30E0338B228B22ECE0
:1023F00030E0358B248B26EC30E0378B268B118E2A
:10240000128E138E148EE2EBF4E020E5208311820D
:10241000E4EBF4E0158216821186138642E050E068
:1024200060E070E0448755876687778713A215A61A
:1024300014A620E231E033A722A717A6EDEFF4E0BF
:102440001382128284839583A683B7838CE291E002
:1024500091838083128E118E14860895CF93DF931B
:10246000CDB7DEB7A1970FB6F894DEBF0FBECDBFD4
:10247000789484B5826084BD84B5816084BD85B55F
:10248000826085BD85B5816085BD80916E0081606B
:1024900080936E0010928100809181008260809311
:1024A0008100809181008160809381008091800013
:1024B0008160809380008091B10084608093B1003E
:1024C0008091B00081608093B00080917A00846038
:1024D00080937A0080917A00826080937A00809164
:1024E0007A00816080937A0080917A00806880937E
:1024F0007A001092C100E0912504F091260482E058
:102500008083E0912104F09122041082E091230461
:10251000F09124048FEC808310922D04E091290423
:10252000F0912A0486E08083E0912704F09128044A
:10253000808180618083E0912704F091280480816C
:1025400088608083E0912704F0912804808180686E
:102550008083E0912704F091280480818F7D80831F
:1025600061E08AE00E94580262E088E00E9458021E
:1025700062E089E00E94580268EE73E080E090E03B
:102580000E94AE028091E304882321F08EED94E056
:102590000E94840A1092BF041092BD041092BA04E3
:1025A0001092B9048AE08093B8040E94E0028B0183
:1025B00061E08091B8040E94580261E08091B80403
:1025C0000E942A02FFB6F89480911002811127C060
:1025D000E8ECF0E08491E4EBF0E09491E82FF0E097
:1025E000EE0FFF1FE056FF4FA591B491EC91E92348
:1025F00021F461E08AE00E942A0261E08AE00E9400
:1026000058028CB580618CBD8CB580648CBD61E056
:102610008DE00E94580261E08BE00E945802809198
:1026200010028F5F80931002FFBE82E58093B20498
:102630001092B3048091B2049091B3040E942203DB
:102640003AE0F32E8FEF0E94FD02FA94F110FACFD8
:1026500084EB94E00E94250320E030E0A90160E0D3
:1026600084EB94E00E943B03F82E8093BE0481E04B
:10267000F816C9F00E94E002601B710B613D7740C3
:1026800058F381E08093B90484EB94E00E94F20255
:102690008FE491E00E94C30E60ED77E080E090E06F
:1026A0000E94AE02FFCF2AEA31E040E050E068E04D
:1026B00084EB94E00E943B0382FF2AC0F092BF04A7
:1026C0008091BF04C12CD12C7601823029F4C12C19
:1026D000D12CE12C90E4F92E20E030E0A90167E351
:1026E00084EB94E00E943B03A701960169E284EB2E
:1026F00094E00E943B038093BE048823D1F00E94A3
:10270000E002601B710B613D774030F388E0BACF87
:1027100024E0F22E0E9404038093BE04FA94F11088
:10272000F9CF8A3A11F082E0ADCF82E08093BF0406
:10273000C7CF8091BF048230D1F420E030E0A901FE
:102740006AE384EB94E00E943B03882311F086E067
:1027500099CF0E940403807C803C19F483E080932D
:10276000BF040E9404030E9404030E94040384EB3C
:1027700094E00E94F20280E58093B2041092B304C8
:1027800081E00E944105882309F4B8C08EED94E0F1
:102790000E94F807882309F47BCF8DE391E00E9423
:1027A000C30E60ED77E080E090E00E94AE028AE028
:1027B000882E912CA12CB12C00E010E088E00E9422
:1027C0000102892B09F0BEC081E691E00E94C30E90
:1027D00080911102909112020196909312028093BF
:1027E000110267E1CE0101960E94B710CE01019659
:1027F0000E949400E0911605F0911705309709F4B6
:102800009AC08581882309F496C08FE691E00E94E2
:10281000C30E8DE791E00E94C30E6DE871E08DEF6D
:1028200094E00E94B40EC0901102D09012020D2CC0
:10283000000CEE08FF08F7FE68C06DE28DEF94E033
:102840000E94E40C22273327A9012C193D094E09C7
:102850005F0919A2CE0181967C01CA01B901A501C7
:1028600094010E94EA14605DF70162937F012115D3
:1028700031054105510589F7E114F10429F0B7014B
:102880008DEF94E00E94B40E6AE371E08DEF94E066
:102890000E94B40E8091160590911705009761F083
:1028A0000E94840A80911605909117050E94C81510
:1028B000109217051092160560ED77E080E090E029
:1028C0000E94AE0286E991E00E94C30E68EE73E0BA
:1028D00080E090E00E94AE0264EF71E080E090E062
:1028E0000E94AE020115110509F468CF0E9435015E
:1028F000882309F463CF0E94000060CF80E00E942B
:102900004105882309F4C4CE41CFA701960119A23D
:10291000CE0181967C01CA01B901A50194010E94F2
:10292000EA14605DF70162937F01211531054105CD
:10293000510589F7A1CF86EA91E00E94C30E86EB8C
:1029400091E0C2CF89E00E940102892B59F683EC05
:1029500091E00E94C30E61E0CE0101960E94B71083
:10296000CE0101960E949400E0911605F0911705A2
:10297000309759F18581882341F180ED91E00E94E3
:10298000C30E8DEF94E00E94970C892B51F08DEFD0
:1029900094E00E941A0E682F85E194E00E946B017A
:1029A000F0CF8091160590911705009709F494CF08
:1029B0000E94840A80911605909117050E94C815FF
:1029C000109217051092160587CF84EE91E00E94B1
:1029D000C30E82CFA1E21A2EAA1BBB1BFD010DC0A4
:1029E000AA1FBB1FEE1FFF1FA217B307E407F507BF
:1029F00020F0A21BB30BE40BF50B661F771F881F9B
:102A0000991F1A9469F760957095809590959B0130
:102A1000AC01BD01CF0108950E941D15A59F900D29
:102A2000B49F900DA49F800D911D11240895EE0F69
:102A3000FF1F0590F491E02D0994A29FB001B39F70
:102A4000C001A39F700D811D1124911DB29F700DB7
:102A5000811D1124911D08950F931F93CF93DF9330
:102A60008230910510F482E090E0E0911A05F09137
:102A70001B0530E020E0B0E0A0E0309799F421158C
:102A8000310509F44AC0281B390B24303105D8F52B
:102A90008A819B816115710589F1FB019383828392
:102AA000FE0111C0408151810281138148175907ED
:102AB000E0F04817590799F4109761F012960C93BB
:102AC000129713961C933296CF01DF91CF911F91ED
:102AD0000F91089500931A0510931B05F4CF21154B
:102AE000310551F04217530738F0A901DB019A0173
:102AF000BD01DF01F801C1CFEF01F9CF90931B05B4
:102B000080931A05CDCFFE01E20FF31F81939193BD
:102B10002250310939832883D7CF2091180530916D
:102B20001905232B41F420910601309107013093C0
:102B300019052093180520910401309105012115F4
:102B4000310541F42DB73EB740910801509109017C
:102B5000241B350BE0911805F0911905E217F307D6
:102B6000A0F42E1B3F0B2817390778F0AC014E5FFD
:102B70005F4F2417350748F04E0F5F1F509319051C
:102B800040931805819391939FCFF0E0E0E09CCFB4
:102B9000CF93DF930097E9F0FC0132971382128202
:102BA000A0911A05B0911B05ED0130E020E01097CF
:102BB000A1F420813181820F931F2091180530915B
:102BC00019052817390709F061C0F0931905E0933A
:102BD0001805DF91CF910895EA01CE17DF07E8F5D8
:102BE0004A815B819E0141155105B1F7E901FB83E3
:102BF000EA8349915991C40FD51FEC17FD0761F481
:102C0000808191810296840F951FE90199838883C1
:102C1000828193819B838A83F0E0E0E012968D911C
:102C20009C9113970097B9F52D913C911197CD0187
:102C30000296820F931F20911805309119052817CD
:102C4000390739F6309751F510921B0510921A0585
:102C5000B0931905A0931805BCCFD383C2834081DC
:102C60005181840F951FC817D90761F44E5F5F4FDC
:102C700088819981480F591F518340838A819B81A4
:102C8000938382832115310509F0B0CFF0931B05A2
:102C9000E0931A059ECFFD01DC01C0CF13821282A2
:102CA000D7CFFB01DC0104C08D910190801921F484
:102CB00041505040C8F7881B990B0895FB01DC0177
:102CC0004150504048F001900D920020C9F701C0DA
:0E2CD0001D9241505040E0F70895F894FFCF58
:102CDE00FFFFFFFF00001C058000000000006B01DD
:102CEE00CB00F800B801290107011B01000000000C
:102CFE002C0CCB00260A8D0C00000000E40CC70C37
:102D0E00B70C8E0C970C1A0E240E0D0A005344208D
:102D1E006361726420426572686173696C20002081
:102D2E005344206361726420476167616C212020E7
:102D3E000054756C697320446174612E2E2E002030
:102D4E002053696D70616E20646174610066696CF8
:102D5E00652D3E64617461312E7478740044617423
:102D6E0061206B652D002020426572686173696C6D
:102D7E002E2E2E2020006572726F722062756B618E
:102D8E002066696C650020202064617461312E74A8
:102D9E007874004261636120446174612E2E2E00AE
:102DAE004973692046696C652064617461312E74C3
:102DBE0078743A0062756B612066696C6520646197
:102DCE007461312E747874204572726F72212100F5
:00000001FF
