:100000000C9458000C9480000C9480000C94800098
:100010000C9480000C9480000C9480000C94800060
:100020000C9480000C9480000C9480000C94800050
:100030000C9480000C9480000C9480000C94800040
:100040000C9441030C9480000C940F030C94E9026F
:100050000C9480000C9480000C9480000C94800020
:100060000C948B030C9480000000000025002800F5
:100070002B00040404040404040402020202020229
:10008000030303030303010204081020408001025C
:1000900004081020010204081020000000080002DB
:1000A0000100000304070000000000000000AA0493
:1000B00011241FBECFEFD8E0DEBFCDBF11E0A0E01E
:1000C000B1E0E6EFFCE002C005900D92A432B1076A
:1000D000D9F722E0A4E2B1E001C01D92AE36B2072A
:1000E000E1F710E0C8E5D0E004C02197FE010E94CE
:1000F0007306C735D107C9F70E94E3040C9479064B
:100100000C9400008091C4019091C301891B990B4C
:10011000089508950895AF92BF92CF92DF92EF9223
:10012000FF920F931F93CF93DF936C017B018B01A1
:10013000040F151FEB015E01AE18BF08C017D107F1
:1001400059F06991D601ED91FC910190F081E02D7B
:10015000C6010995892B79F7C501DF91CF911F91D0
:100160000F91FF90EF90DF90CF90BF90AF900895E8
:10017000FC01538D448D252F30E0842F90E0821BAD
:10018000930B541710F0CF96089501970895FC0132
:10019000918D828D981761F0A28DAE0FBF2FB11D8A
:1001A0005D968C91928D9F5F9F73928F90E00895E2
:1001B0008FEF9FEF0895FC01918D828D981731F09C
:1001C000828DE80FF11D858D90E008958FEF9FEFF0
:1001D0000895FC01918D228D892F90E0805C9F4FC6
:1001E000821B91098F739927089585EC91E00E94F5
:1001F000E90021E0892B09F420E0822F089580E0B6
:1002000090E0892B29F00E94F50081110C940000E8
:100210000895FC01A48DA80FB92FB11DA35ABF4F9B
:100220002C91848D90E001968F739927848FA689F5
:10023000B7892C93A089B1898C91837080648C9349
:10024000938D848D981306C00288F389E02D8081F8
:100250008F7D80830895EF92FF920F931F93CF932A
:10026000DF93EC0181E0888F9B8D8C8D98131AC0F1
:10027000E889F989808185FF15C09FB7F894EE89D8
:10028000FF896083E889F989808183708064808335
:100290009FBF81E090E0DF91CF911F910F91FF9080
:1002A000EF900895F62E0B8D10E00F5F1F4F0F7328
:1002B0001127E02E8C8D8E110CC00FB607FCFACFE3
:1002C000E889F989808185FFF5CFCE010E94090177
:1002D000F1CFEB8DEC0FFD2FF11DE35AFF4FF082B4
:1002E0009FB7F8940B8FEA89FB8980818062CFCF1A
:1002F000CF93DF93EC01888D8823B9F0AA89BB895D
:10030000E889F9898C9185FD03C0808186FD0DC047
:100310000FB607FCF7CF8C9185FFF2CF808185FF68
:10032000EDCFCE010E940901E9CFDF91CF91089571
:1003300090E0FC01E656FF4F2491FC01EA57FF4F85
:100340003491FC01EE58FF4FE491EE23C9F02223D3
:1003500039F0233001F1A8F4213019F1223029F1CC
:10036000F0E0EE0FFF1FE859FF4FA591B4918FB752
:10037000F894EC91611126C030953E233C938FBFD9
:1003800008952730A9F02830C9F0243049F780912A
:1003900080008F7D03C0809180008F7780938000E4
:1003A000DFCF84B58F7784BDDBCF84B58F7DFBCF66
:1003B0008091B0008F778093B000D2CF8091B00051
:1003C0008F7DF9CF3E2BDACF3FB7F89480916D0146
:1003D00090916E01A0916F01B091700126B5A89B1C
:1003E00005C02F3F19F00196A11DB11D3FBFBA2FC7
:1003F000A92F982F8827BC01CD01620F711D811D87
:10040000911D42E0660F771F881F991F4A95D1F70B
:10041000089520914501260F3327331F21323105DE
:10042000ECF420919D01FC0190E080E0243069F023
:1004300082E00895A09145012191AC014B5D5E4F92
:10044000A40FB52FB11D2C930196861798F38091B8
:100450004501680F6093450180E0089581E00895AB
:1004600010929D0181E080939C011092970161E0C0
:1004700082E10E94980161E083E10E949801E9EB2A
:10048000F0E080818E7F808380818D7F808388E40F
:100490008093B80085E48093BC000895CF93DF93E8
:1004A00091E0909324018823B9F0C091B800D091D5
:1004B000BA008091BC008A7B8093BC0060E082E13E
:1004C0000E94980160E083E10E9498010E9430023E
:1004D000D093BA00C093B800DF91CF9108950895EA
:1004E000E091C3018091C401E81730F4F0E0ED55CC
:1004F000FE4F808190E008958FEF9FEF08959091D7
:10050000C3018091C4012FEF3FEF981748F4E92F02
:10051000F0E0ED55FE4F208130E09F5F9093C301E6
:10052000C9010895CF93DF93CB01EA01642F0E94A4
:100530000902CE01DF91CF910895CF93DF931F92EF
:10054000CDB7DEB7698361E0CE0101960E94090252
:1005500081E090E00F90DF91CF91089590E080E0EE
:10056000089585ED8093BC0080919F019091A0013A
:10057000A091A101B091A2010796A11DB11D23E098
:10058000B695A795979587952A95D1F72091BC00A8
:1005900024FD03C010929D01089540919F01509148
:1005A000A0016091A1017091A201452B462B472B20
:1005B00069F30097A105B10541F025E32A95F1F70C
:1005C00000000197A109B109E1CF80919E010C942F
:1005D0004E021F920F920FB60F9211242F933F934A
:1005E0004F935F936F937F938F939F93AF93BF933B
:1005F000EF93FF9385EC91E00E940901FF91EF9149
:10060000BF91AF919F918F917F916F915F914F912A
:100610003F912F910F900FBE0F901F9018951F9232
:100620000F920FB60F9211242F938F939F93EF93F6
:10063000FF93E091D501F091D6018081E091DB013B
:10064000F091DC0182FD1BC090818091DE018F5F03
:100650008F732091DF01821741F0E091DE01F0E01D
:10066000EB53FE4F958F8093DE01FF91EF919F91A9
:100670008F912F910F900FBE0F901F901895808132
:10068000F4CF1F920F920FB60F9211242F933F9326
:100690008F939F93AF93BF938091690190916A016B
:1006A000A0916B01B0916C013091680123E0230FA0
:1006B0002D3758F50196A11DB11D20936801809337
:1006C000690190936A01A0936B01B0936C018091D2
:1006D0006D0190916E01A0916F01B0917001019632
:1006E000A11DB11D80936D0190936E01A0936F01C8
:1006F000B0937001BF91AF919F918F913F912F91D6
:100700000F900FBE0F901F90189526E8230F0296AA
:10071000A11DB11DD2CF1F920F920FB60F921124BF
:100720002F933F934F935F936F937F938F939F93F9
:10073000AF93BF93EF93FF938091B900887F80368A
:1007400009F44AC0F0F5883209F4A7C018F58031E1
:1007500009F49BC0B8F4882309F4F9C0883009F47F
:1007600094C0FF91EF91BF91AF919F918F917F9135
:100770006F915F914F913F912F910F900FBE0F900E
:100780001F901895883109F488C0803251F7809302
:100790009B0114C0803409F49DC040F48033B9F348
:1007A0008833F9F680939B0185ECB0C0803509F45D
:1007B00085C0883509F496C0883499F60E94B10244
:1007C000D0CF883909F48CC038F5883729F050F437
:1007D000883611F0803729F683E080939D011092CE
:1007E000670157C0883809F47BC0803919F0803818
:1007F00009F0B7CF80916701803208F071C0E091B5
:10080000670181E08E0F809367018091BB00F0E06B
:10081000E95BFE4F80833DC0803B39F0E0F4803AD5
:1008200009F479C0883A09F09CCF84E080939D0157
:100830001092460110924501E0917301F09174010C
:1008400009958091450181110FC081E08093450198
:100850001092250109C0803C09F4A6CF883C09F418
:10086000A3CF883B09F07DCFE091460181E08E0F58
:1008700080934601F0E0EB5DFE4F80818093BB00EA
:10088000909146018091450129C080919801809303
:10089000BB0085EC8093BC0064CF90919A0180915D
:1008A0009901981758F5E0919A0181E08E0F809395
:1008B0009A01F0E0E958FE4F8081E9CFE0919A017A
:1008C00081E08E0F80939A018091BB00F0E0E9589F
:1008D000FE4F808390919A01809199019817C8F2F8
:1008E00085E8D8CFE0919A0181E08E0F80939A013C
:1008F0008091BB00F0E0E958FE4F808380919C011D
:1009000081115CCF81E08093970184EA8093BC00E1
:1009100010929D0126CF85EC8093BC0010929D0122
:1009200080916701803230F4E0916701F0E0E95B8B
:10093000FE4F10826091670170E0E0917101F091CB
:10094000720187E491E00995109267010ACF109235
:100950009B0134CFE5ECF1E01382128288EE93E044
:10096000A0E0B0E084839583A683B78324E031E0E0
:100970003183208325EC30E03587248724EC30E078
:100980003787268720EC30E0318B208B21EC30E05C
:10099000338B228B22EC30E0358B248B26EC30E03D
:1009A000378B268B118E128E138E148EE2E6F2E0B8
:1009B0001382128284839583A683B78386E191E0B4
:1009C000918380830895789484B5826084BD84B5D2
:1009D000816084BD85B5826085BD85B5816085BD3A
:1009E00080916E00816080936E00109281008091F2
:1009F000810082608093810080918100816080937A
:100A00008100809180008160809380008091B1009E
:100A100084608093B1008091B00081608093B000C9
:100A200080917A00846080937A0080917A0082605D
:100A300080937A0080917A00816080937A0080911F
:100A40007A00806880937A001092C1001092C301EE
:100A50001092C40110927601109275010E9430022A
:100A600089E890E090937401809373018AE890E0A4
:100A70009093720180937101E091D501F091D601BC
:100A800082E08083E091D101F091D2011082E09167
:100A9000D301F091D4018FEC80831092DD01E091BD
:100AA000D901F091DA0186E08083E091D701F091DD
:100AB000D801808180618083E091D701F091D801D5
:100AC000808188608083E091D701F091D801808196
:100AD00080688083E091D701F091D80180818F7D7B
:100AE000808395EE792E25EC622E00E010E0D1E0B7
:100AF00055245A9435E0432E0E94E4016B017C0199
:100B000080919D01811161C0D0939D01D0939C0182
:100B100050929B0110929A0140929901D0939801B2
:100B20008091980180618093980180919701813034
:100B300009F083C0109297010E94E4016B017C01CF
:100B4000809198018093BB0080919F019091A001BA
:100B5000A091A101B091A201892B8A2B8B2BA1F02E
:100B60000E94E40180909F019090A001A090A101BB
:100B7000B090A2016C197D098E099F09861697060F
:100B8000A806B90608F442C08091BC0083FDD8CF06
:100B90006092BC000E94E4016B017C0180919D0188
:100BA000813009F44DC080919A01C6E0863010F47E
:100BB000C0919A01A7E7B1E0E3EAF1E080E08C1789
:100BC00051F19D9191938F5FFACF80919F01909108
:100BD000A001A091A101B091A201892B8A2B8B2B9E
:100BE00009F48ECF0E94E40180909F019090A001B3
:100BF000A090A101B090A2016C197D098E099F09F6
:100C000086169706A806B90608F07ACF80919E014D
:100C10000E944E02C0E01092C301C093C4018091B3
:100C2000C301C81779F182E692E00E947F02682F23
:100C300085EC91E00E942B01F2CF7092BC00AACF0C
:100C400080919F019091A001A091A101B091A2017A
:100C5000892B8A2B8B2B09F4A1CF0E94E401809071
:100C60009F019090A001A090A101B090A2016C19E9
:100C70007D098E099F0986169706A806B90608F011
:100C80008DCFC4CF0E94E4014B015C0184EFC82EDC
:100C9000DD24D394E12CF12C0E94E4016819790938
:100CA0008A099B09683E734081059105A8F321E0FC
:100CB000C21AD108E108F10888EE880E83E0981E78
:100CC000A11CB11CC114D104E104F10429F70115E0
:100CD000110509F411CF0E94F500882309F40CCF07
:100CE0000E94000009CFEE0FFF1F0590F491E02D48
:060CF0000994F894FFCF07
:100CF600000000002B018B00B8007801E900C70056
:100D0600DB00000000009D029202AE026F0282002C
:040D16007F027002E6
:00000001FF
