:100000000C9458000C9480000C9480000C94800098
:100010000C9480000C9480000C9480000C94800060
:100020000C9480000C9480000C9480000C94800050
:100030000C9480000C9480000C9480000C94800040
:100040000C94ED010C9480000C9480000C948000C2
:100050000C9480000C9480000C9480000C94800020
:100060000C9437020C94800000000000250028004A
:100070002B00040404040404040402020202020229
:10008000030303030303010204081020408001025C
:1000900004081020010204081020000000080002DB
:1000A0000100000304070000000000000000E3035B
:1000B00011241FBECFEFD8E0DEBFCDBF11E0A0E01E
:1000C000B1E0E8EFF7E002C005900D92AA31B10768
:1000D000D9F721E0AAE1B1E001C01D92A93CB20725
:1000E000E1F710E0C8E5D0E004C02197FE010E94CE
:1000F000F403C735D107C9F70E9456030C94FA03DD
:100100000C940000E091BB01F091BC01309729F004
:100110001092B8011092B70109940895089590E0E3
:10012000FC01E656FF4F2491FC01EA57FF4F349142
:10013000FC01EE58FF4FE491EE23C9F0222339F081
:10014000233001F1A8F4213019F1223029F1F0E037
:10015000EE0FFF1FE859FF4FA591B4918FB7F894A8
:10016000EC91611126C030953E233C938FBF0895DA
:100170002730A9F02830C9F0243049F78091800059
:100180008F7D03C0809180008F7780938000DFCFC8
:1001900084B58F7784BDDBCF84B58F7DFBCF809115
:1001A000B0008F778093B000D2CF8091B0008F7D68
:1001B000F9CF3E2BDACF3FB7F8948091AF01909101
:1001C000B001A091B101B091B20126B5A89B05C0C4
:1001D0002F3F19F00196A11DB11D3FBFBA2FA92FC6
:1001E000982F8827BC01CD01620F711D811D911DC3
:1001F00042E0660F771F881F991F4A95D1F708952F
:1002000020916001260F3327331F21323105ECF492
:1002100020918401FC0190E080E0243069F082E0CC
:100220000895A09160012191AC01405C5E4FA40F44
:10023000B52FB11D2C930196861798F3809160011C
:10024000680F6093600180E0089581E00895109246
:10025000840181E0809386011092850161E082E152
:100260000E948F0061E083E10E948F00E9EBF0E0E3
:1002700080818E7F808380818D7F808388E48093DE
:10028000B80085E48093BC0008950895E091BA0118
:100290008091B901E81730F4F0E0E65EFE4F80810E
:1002A00090E008958FEF9FEF08959091BA018091AB
:1002B000B9012FEF3FEF981748F4E92FF0E0E65E21
:1002C000FE4F208130E09F5F9093BA01C9010895ED
:1002D0008091B9019091BA01891B990B0895CF9330
:1002E000DF93CB01EA01642F0E940001CE01DF9170
:1002F000CF910895CF93DF931F92CDB7DEB7698377
:1003000061E0CE0101960E94000181E090E00F9033
:10031000DF91CF91089590E080E0089546E050E0AD
:1003200062E171E08DEB91E00C946F01CF93DF936C
:1003300085ED8093BC0080913C0190913D01A0919E
:100340003E01B0913F010796A11DB11D23E0B69576
:10035000A795979587952A95D1F72091BC0024FD04
:1003600003C01092840136C040913C0150913D0180
:1003700060913E0170913F01452B462B472B69F35D
:100380000097A105B10541F025E32A95F1F700009A
:100390000197A109B109E1CF80913B0191E09093D0
:1003A0003A018823B9F0C091B800D091BA00809189
:1003B000BC008A7B8093BC0060E082E10E948F00D9
:1003C00060E083E10E948F000E942701D093BA0071
:1003D000C093B800DF91CF9108951F920F920FB68E
:1003E0000F9211242F933F938F939F93AF93BF93BB
:1003F0008091AB019091AC01A091AD01B091AE01A3
:100400003091AA0123E0230F2D3758F50196A11D45
:10041000B11D2093AA018093AB019093AC01A093EE
:10042000AD01B093AE018091AF019091B001A09168
:10043000B101B091B2010196A11DB11D8093AF0130
:100440009093B001A093B101B093B201BF91AF916D
:100450009F918F913F912F910F900FBE0F901F9002
:10046000189526E8230F0296A11DB11DD2CF1F9229
:100470000F920FB60F9211242F933F934F935F93D8
:100480006F937F938F939F93AF93BF93EF93FF935C
:100490008091B900887F803609F44AC0F0F588322F
:1004A00009F4A7C018F5803109F49BC0B8F488237B
:1004B00009F4F9C0883009F494C0FF91EF91BF911D
:1004C000AF919F918F917F916F915F914F913F91EC
:1004D0002F910F900FBE0F901F901895883109F43F
:1004E00088C0803251F78093830114C0803409F4AE
:1004F0009DC040F48033B9F38833F9F680938301CB
:1005000085ECB0C0803509F485C0883509F496C003
:10051000883499F60E949601D0CF883909F48CC0AE
:1005200038F5883729F050F4883611F0803729F6ED
:1005300083E0809384011092820157C0883809F4C7
:100540007BC0803919F0803809F0B7CF80918201E3
:10055000803208F071C0E091820181E08E0F8093BB
:1005600082018091BB00F0E0EE59FE4F80833DC0D8
:10057000803B39F0E0F4803A09F479C0883A09F018
:100580009CCF84E0809384011092610110926001FD
:10059000E091B501F091B60109958091600181115A
:1005A0000FC081E0809360011092400109C0803C3F
:1005B00009F4A6CF883C09F4A3CF883B09F07DCF8E
:1005C000E091610181E08E0F80936101F0E0E05CD9
:1005D000FE4F80818093BB0090916101809160010A
:1005E00029C08091A9018093BB0085EC8093BC0059
:1005F00064CF9091A8018091A701981758F5E091D8
:10060000A80181E08E0F8093A801F0E0E957FE4F2A
:100610008081E9CFE091A80181E08E0F8093A8014D
:100620008091BB00F0E0E957FE4F80839091A801D4
:100630008091A7019817C8F285E8D8CFE091A8016A
:1006400081E08E0F8093A8018091BB00F0E0E95714
:10065000FE4F80838091860181115CCF81E0809381
:10066000850184EA8093BC001092840126CF85EC3A
:100670008093BC001092840180918201803230F41A
:10068000E0918201F0E0EE59FE4F1082609182010C
:1006900070E0E091B301F091B40182E691E0099538
:1006A000109282010ACF1092830134CF789484B5DE
:1006B000826084BD84B5816084BD85B5826085BD5E
:1006C00085B5816085BD80916E00816080936E00EC
:1006D00010928100809181008260809381008091DE
:1006E000810081608093810080918000816080938F
:1006F00080008091B10084608093B1008091B0004F
:1007000081608093B00080917A00846080937A0049
:1007100080917A00826080937A0080917A00816073
:1007200080937A0080917A00806880937A0010929A
:10073000C1001092BA011092B9011092B801109242
:10074000B7010E94270182E890E09093B601809360
:10075000B5018EE890E09093B4018093B30180E1FD
:100760008093BA008EE891E09093BC018093BB0126
:10077000C0E0D0E00E94DB004B015C0184E6C82EA3
:10078000D12CE12CF12C0E94DB00681979098A092F
:100790009B09683E734081059105A8F321E0C21AC8
:1007A000D108E108F10888EE880E83E0981EA11CAC
:1007B000B11CC114D104E104F10429F72097D1F24E
:1007C0000E940000D7CFEDEBF1E01382128288EE99
:1007D00093E0A0E0B0E084839583A683B78384E0B0
:1007E00091E0918380830895EE0FFF1F0590F491AF
:0807F000E02D0994F894FFCFFD
:1007F800000000007A016F018B0145016801550175
:0A080800460168656C6C6F2000006B
:00000001FF
